{"contracts/LiquidityManager.sol":{"LiquidityManager":{"abi":[{"inputs":[{"internalType":"address","name":"_positionManagerAddress","type":"address"},{"internalType":"address","name":"_sushiPoolOracleAddress","type":"address"},{"internalType":"address","name":"_soonTokenAddress","type":"address"},{"internalType":"address","name":"_rbtcTokenAddress","type":"address"},{"internalType":"int24","name":"_initialTickDistance","type":"int24"},{"internalType":"uint32","name":"_initialTwapInterval","type":"uint32"}],"stateMutability":"nonpayable","type":"constructor"},{"anonymous":false,"inputs":[{"indexed":false,"internalType":"uint256","name":"amountSOON","type":"uint256"},{"indexed":false,"internalType":"uint256","name":"amountRBTC","type":"uint256"}],"name":"FeesCollected","type":"event"},{"anonymous":false,"inputs":[],"name":"ManagerLocked","type":"event"},{"anonymous":false,"inputs":[{"indexed":true,"internalType":"address","name":"previousOwner","type":"address"},{"indexed":true,"internalType":"address","name":"newOwner","type":"address"}],"name":"OwnershipTransferred","type":"event"},{"anonymous":false,"inputs":[{"indexed":true,"internalType":"uint256","name":"tokenId","type":"uint256"},{"indexed":false,"internalType":"int24","name":"initialTickLower","type":"int24"},{"indexed":false,"internalType":"int24","name":"initialTickUpper","type":"int24"}],"name":"PositionInitialized","type":"event"},{"anonymous":false,"inputs":[{"indexed":true,"internalType":"uint256","name":"tokenId","type":"uint256"},{"indexed":false,"internalType":"int24","name":"newTickLower","type":"int24"},{"indexed":false,"internalType":"int24","name":"newTickUpper","type":"int24"},{"indexed":false,"internalType":"uint128","name":"newLiquidity","type":"uint128"}],"name":"PositionRebalanced","type":"event"},{"anonymous":false,"inputs":[{"indexed":false,"internalType":"int24","name":"newTickDistance","type":"int24"}],"name":"TickDistanceUpdated","type":"event"},{"anonymous":false,"inputs":[{"indexed":false,"internalType":"uint32","name":"newTwapInterval","type":"uint32"}],"name":"TwapIntervalUpdated","type":"event"},{"inputs":[],"name":"POOL_FEE","outputs":[{"internalType":"uint24","name":"","type":"uint24"}],"stateMutability":"view","type":"function"},{"inputs":[{"internalType":"uint256","name":"amountSOONDesired","type":"uint256"},{"internalType":"uint256","name":"amountRBTCDdesired","type":"uint256"},{"internalType":"int24","name":"targetTick","type":"int24"}],"name":"initializePosition","outputs":[],"stateMutability":"payable","type":"function"},{"inputs":[],"name":"isLocked","outputs":[{"internalType":"bool","name":"","type":"bool"}],"stateMutability":"view","type":"function"},{"inputs":[],"name":"lock","outputs":[],"stateMutability":"nonpayable","type":"function"},{"inputs":[],"name":"owner","outputs":[{"internalType":"address","name":"","type":"address"}],"stateMutability":"view","type":"function"},{"inputs":[],"name":"positionManager","outputs":[{"internalType":"contract INonfungiblePositionManager","name":"","type":"address"}],"stateMutability":"view","type":"function"},{"inputs":[],"name":"positionTokenId","outputs":[{"internalType":"uint256","name":"","type":"uint256"}],"stateMutability":"view","type":"function"},{"inputs":[],"name":"rbtcToken","outputs":[{"internalType":"address","name":"","type":"address"}],"stateMutability":"view","type":"function"},{"inputs":[],"name":"rebalancePosition","outputs":[],"stateMutability":"nonpayable","type":"function"},{"inputs":[],"name":"renounceOwnership","outputs":[],"stateMutability":"nonpayable","type":"function"},{"inputs":[{"internalType":"address payable","name":"to","type":"address"}],"name":"rescueRBTC","outputs":[],"stateMutability":"nonpayable","type":"function"},{"inputs":[{"internalType":"address","name":"token","type":"address"},{"internalType":"uint256","name":"amount","type":"uint256"},{"internalType":"address","name":"to","type":"address"}],"name":"rescueTokens","outputs":[],"stateMutability":"nonpayable","type":"function"},{"inputs":[],"name":"soonToken","outputs":[{"internalType":"contract IERC20","name":"","type":"address"}],"stateMutability":"view","type":"function"},{"inputs":[],"name":"sushiPoolOracle","outputs":[{"internalType":"contract IUniswapV3PoolOracle","name":"","type":"address"}],"stateMutability":"view","type":"function"},{"inputs":[],"name":"tickDistance","outputs":[{"internalType":"int24","name":"","type":"int24"}],"stateMutability":"view","type":"function"},{"inputs":[{"internalType":"address","name":"newOwner","type":"address"}],"name":"transferOwnership","outputs":[],"stateMutability":"nonpayable","type":"function"},{"inputs":[],"name":"twapIntervalSeconds","outputs":[{"internalType":"uint32","name":"","type":"uint32"}],"stateMutability":"view","type":"function"},{"inputs":[{"internalType":"int24","name":"newTickDistance","type":"int24"}],"name":"updateTickDistance","outputs":[],"stateMutability":"nonpayable","type":"function"},{"inputs":[{"internalType":"uint32","name":"newTwapInterval","type":"uint32"}],"name":"updateTwapInterval","outputs":[],"stateMutability":"nonpayable","type":"function"},{"stateMutability":"payable","type":"receive"}],"evm":{"bytecode":{"linkReferences":{},"object":"6101006040523480156200001257600080fd5b506040516200262f3803806200262f833981016040819052620000359162000276565b620000403362000209565b600180556001600160a01b038616158015906200006557506001600160a01b03851615155b80156200007a57506001600160a01b03841615155b80156200008f57506001600160a01b03831615155b620000e15760405162461bcd60e51b815260206004820152601960248201527f4c4d3a205a65726f20616464726573732070726f76696465640000000000000060448201526064015b60405180910390fd5b60008260020b138015620000f95750614e208260020b125b620001475760405162461bcd60e51b815260206004820152601960248201527f4c4d3a20496e76616c6964207469636b2064697374616e6365000000000000006044820152606401620000d8565b6102588163ffffffff1610158015620001695750620151808163ffffffff1611155b620001b75760405162461bcd60e51b815260206004820152601960248201527f4c4d3a20496e76616c6964205457415020696e74657276616c000000000000006044820152606401620000d8565b6001600160a01b0395861660805293851660a05291841660c05290921660e0526003805463ffffffff90921663010000000266ffffffffffffff1990921662ffffff909316929092171790556200030b565b600080546001600160a01b038381166001600160a01b0319831681178455604051919092169283917f8be0079c531659141344cd1fd0a4f28419497f9722a3daafe3b4186f6b6457e09190a35050565b80516001600160a01b03811681146200027157600080fd5b919050565b60008060008060008060c087890312156200029057600080fd5b6200029b8762000259565b9550620002ab6020880162000259565b9450620002bb6040880162000259565b9350620002cb6060880162000259565b925060808701518060020b8114620002e257600080fd5b60a088015190925063ffffffff81168114620002fd57600080fd5b809150509295509295509295565b60805160a05160c05160e0516122036200042c6000396000818161028b0152818161098201528181610b4b01528181610bf401528181610c4d01528181610ca301528181610d2201528181610d5f01528181610dd001528181610e4101528181610ea70152818161108d0152611492015260008181610136015281816108aa01528181610a9701528181610c1e01528181610c7301528181610ccd01528181610cfc01528181610d8901528181610dfa01528181610e6b01528181610ed10152818161105001526114bc01526000818161034301526115a7015260008181610239015281816104bb01528181610a6801528181610b1c01528181610f350152818161140d0152818161172d015281816117db015261190401526122036000f3fe6080604052600436106101185760003560e01c8063a4e2d634116100a0578063ceefe5d111610064578063ceefe5d114610365578063d814e21414610389578063dd1b9c4a146103a9578063f2fde38b146103d3578063f83d08ba146103f357600080fd5b8063a4e2d634146102ad578063a500775e146102de578063a51c8e2f146102fe578063b37fd19014610311578063c3c687471461033157600080fd5b8063781bbc2c116100e7578063781bbc2c146101ce5780637872bf5f14610207578063791b98bc146102275780638da5cb5b1461025b5780638e4704ad1461027957600080fd5b8063023e66e01461012457806348626a8c146101755780634b8f3c89146101a2578063715018a6146101b957600080fd5b3661011f57005b600080fd5b34801561013057600080fd5b506101587f000000000000000000000000000000000000000000000000000000000000000081565b6040516001600160a01b0390911681526020015b60405180910390f35b34801561018157600080fd5b5060035461018f9060020b81565b60405160029190910b815260200161016c565b3480156101ae57600080fd5b506101b7610408565b005b3480156101c557600080fd5b506101b76105ee565b3480156101da57600080fd5b506003546101f2906301000000900463ffffffff1681565b60405163ffffffff909116815260200161016c565b34801561021357600080fd5b506101b7610222366004611a9b565b610600565b34801561023357600080fd5b506101587f000000000000000000000000000000000000000000000000000000000000000081565b34801561026757600080fd5b506000546001600160a01b0316610158565b34801561028557600080fd5b506101587f000000000000000000000000000000000000000000000000000000000000000081565b3480156102b957600080fd5b506003546102ce90600160381b900460ff1681565b604051901515815260200161016c565b3480156102ea57600080fd5b506101b76102f9366004611abf565b6106b3565b6101b761030c366004611af4565b6107ad565b34801561031d57600080fd5b506101b761032c366004611b2d565b61101c565b34801561033d57600080fd5b506101587f000000000000000000000000000000000000000000000000000000000000000081565b34801561037157600080fd5b5061037b60025481565b60405190815260200161016c565b34801561039557600080fd5b506101b76103a4366004611b64565b611187565b3480156103b557600080fd5b506103bf610bb881565b60405162ffffff909116815260200161016c565b3480156103df57600080fd5b506101b76103ee366004611a9b565b611263565b3480156103ff57600080fd5b506101b76112dc565b610410611375565b6002546000036104675760405162461bcd60e51b815260206004820152601c60248201527f4c4d3a20506f736974696f6e206e6f7420696e697469616c697a65640000000060448201526064015b60405180910390fd5b6000806104726113ce565b60408051838152602081018390529294509092507f49d512bf9cb224241c05691e73eb9fab078cf350c7dbcbcf66788f1fc0cc8b0b910160405180910390a160008060008060007f00000000000000000000000000000000000000000000000000000000000000006001600160a01b03166399fbab886002546040518263ffffffff1660e01b815260040161050991815260200190565b61018060405180830381865afa158015610527573d6000803e3d6000fd5b505050506040513d601f19601f8201168201806040525081019061054b9190611bc6565b50505050975097509750509650965050506000610566611503565b9050627ffffe19600282900b016105845750505050505050506105e3565b6003546000906105979060020b83611cbd565b6003549091506000906105ad9060020b84611ce8565b90508460020b8260020b13806105c857508560020b8160020b125b156105d8576105d8848383611694565b505050505050505050505b6105ec60018055565b565b6105f66119dc565b6105ec6000611a36565b6106086119dc565b600354600160381b900460ff16156106325760405162461bcd60e51b815260040161045e90611d0d565b47806106785760405162461bcd60e51b81526020600482015260156024820152744c4d3a204e6f205242544320746f2072657363756560581b604482015260640161045e565b6040516001600160a01b0383169082156108fc029083906000818181858888f193505050501580156106ae573d6000803e3d6000fd5b505050565b6106bb6119dc565b600354600160381b900460ff16156106e55760405162461bcd60e51b815260040161045e90611d0d565b6102588163ffffffff16101580156107065750620151808163ffffffff1611155b6107525760405162461bcd60e51b815260206004820152601960248201527f4c4d3a20496e76616c6964205457415020696e74657276616c00000000000000604482015260640161045e565b6003805466ffffffff0000001916630100000063ffffffff8416908102919091179091556040519081527fc99f383ecd620c333255bd2aef929eedd6808999bac9bfc5f53e10d876abf1ce906020015b60405180910390a150565b6107b56119dc565b6107bd611375565b6002541561080d5760405162461bcd60e51b815260206004820181905260248201527f4c4d3a20506f736974696f6e20616c726561647920696e697469616c697a6564604482015260640161045e565b600354600160381b900460ff16156108375760405162461bcd60e51b815260040161045e90611d0d565b6000831180156108475750600082115b6108935760405162461bcd60e51b815260206004820152601c60248201527f4c4d3a20416d6f756e7473206d75737420626520706f73697469766500000000604482015260640161045e565b6040516370a0823160e01b815230600482015283907f00000000000000000000000000000000000000000000000000000000000000006001600160a01b0316906370a0823190602401602060405180830381865afa1580156108f9573d6000803e3d6000fd5b505050506040513d601f19601f8201168201806040525081019061091d9190611d3d565b101561096b5760405162461bcd60e51b815260206004820152601d60248201527f4c4d3a20496e73756666696369656e7420534f4f4e2062616c616e6365000000604482015260640161045e565b6040516370a0823160e01b815230600482015282907f00000000000000000000000000000000000000000000000000000000000000006001600160a01b0316906370a0823190602401602060405180830381865afa1580156109d1573d6000803e3d6000fd5b505050506040513d601f19601f820116820180604052508101906109f59190611d3d565b1015610a515760405162461bcd60e51b815260206004820152602560248201527f4c4d3a20496e73756666696369656e74205242544320285752425443292062616044820152646c616e636560d81b606482015260840161045e565b60405163095ea7b360e01b81526001600160a01b037f000000000000000000000000000000000000000000000000000000000000000081166004830152602482018590527f0000000000000000000000000000000000000000000000000000000000000000169063095ea7b3906044016020604051808303816000875af1158015610ae0573d6000803e3d6000fd5b505050506040513d601f19601f82011682018060405250810190610b049190611d56565b5060405163095ea7b360e01b81526001600160a01b037f000000000000000000000000000000000000000000000000000000000000000081166004830152602482018490527f0000000000000000000000000000000000000000000000000000000000000000169063095ea7b3906044016020604051808303816000875af1158015610b94573d6000803e3d6000fd5b505050506040513d601f19601f82011682018060405250810190610bb89190611d56565b50600354600090610bcc9060020b83611cbd565b600354909150600090610be29060020b84611ce8565b905060006040518061016001604052807f00000000000000000000000000000000000000000000000000000000000000006001600160a01b03167f00000000000000000000000000000000000000000000000000000000000000006001600160a01b031610610c71577f0000000000000000000000000000000000000000000000000000000000000000610c93565b7f00000000000000000000000000000000000000000000000000000000000000005b6001600160a01b031681526020017f00000000000000000000000000000000000000000000000000000000000000006001600160a01b03167f00000000000000000000000000000000000000000000000000000000000000006001600160a01b031610610d20577f0000000000000000000000000000000000000000000000000000000000000000610d42565b7f00000000000000000000000000000000000000000000000000000000000000005b6001600160a01b03168152602001610bb862ffffff1681526020017f00000000000000000000000000000000000000000000000000000000000000006001600160a01b03167f00000000000000000000000000000000000000000000000000000000000000006001600160a01b031610610dc457610dbf84611d78565b610dc6565b845b60020b81526020017f00000000000000000000000000000000000000000000000000000000000000006001600160a01b03167f00000000000000000000000000000000000000000000000000000000000000006001600160a01b031610610e3557610e3085611d78565b610e37565b835b60020b81526020017f00000000000000000000000000000000000000000000000000000000000000006001600160a01b03167f00000000000000000000000000000000000000000000000000000000000000006001600160a01b031610610e9e5786610ea0565b875b81526020017f00000000000000000000000000000000000000000000000000000000000000006001600160a01b03167f00000000000000000000000000000000000000000000000000000000000000006001600160a01b031610610f045787610f06565b865b81526000602082018190526040820152306060820152608001610f2b42610258611d9a565b81525090506000807f00000000000000000000000000000000000000000000000000000000000000006001600160a01b03166388316456846040518263ffffffff1660e01b8152600401610f7f9190611dad565b6080604051808303816000875af1158015610f9e573d6000803e3d6000fd5b505050506040513d601f19601f82011682018060405250810190610fc29190611e71565b505060028281556040805189830b81529188900b602083015292945090925083917f7364cc1570217fc46fd7074a19b3b76cd55175b4e8bed0f878c88a3c47949e41910160405180910390a250505050506106ae60018055565b6110246119dc565b600354600160381b900460ff161561104e5760405162461bcd60e51b815260040161045e90611d0d565b7f00000000000000000000000000000000000000000000000000000000000000006001600160a01b0316836001600160a01b0316141580156110c257507f00000000000000000000000000000000000000000000000000000000000000006001600160a01b0316836001600160a01b031614155b61110e5760405162461bcd60e51b815260206004820152601e60248201527f4c4d3a2043616e6e6f742072657363756520534f4f4e206f7220524254430000604482015260640161045e565b60405163a9059cbb60e01b81526001600160a01b0382811660048301526024820184905284169063a9059cbb906044016020604051808303816000875af115801561115d573d6000803e3d6000fd5b505050506040513d601f19601f820116820180604052508101906111819190611d56565b50505050565b61118f6119dc565b600354600160381b900460ff16156111b95760405162461bcd60e51b815260040161045e90611d0d565b60008160020b1380156111d05750614e208160020b125b61121c5760405162461bcd60e51b815260206004820152601960248201527f4c4d3a20496e76616c6964207469636b2064697374616e636500000000000000604482015260640161045e565b6003805462ffffff191662ffffff8316179055604051600282900b81527f02eca22cd7173ad1d8ab69b2b360c567b16f9f855ec693da803cf941ea3a01b0906020016107a2565b61126b6119dc565b6001600160a01b0381166112d05760405162461bcd60e51b815260206004820152602660248201527f4f776e61626c653a206e6577206f776e657220697320746865207a65726f206160448201526564647265737360d01b606482015260840161045e565b6112d981611a36565b50565b6112e46119dc565b600354600160381b900460ff16156113335760405162461bcd60e51b815260206004820152601260248201527113134e88105b1c9958591e481b1bd8dad95960721b604482015260640161045e565b6003805467ff000000000000001916600160381b1790556040517f54e3ca0d4bd17648cb29d34247ca3924b77e34154244f9eca27217ed60d2f6f790600090a1565b6002600154036113c75760405162461bcd60e51b815260206004820152601f60248201527f5265656e7472616e637947756172643a207265656e7472616e742063616c6c00604482015260640161045e565b6002600155565b6040805160808101825260025481523060208201526001600160801b038183018190526060820152905163fc6f786560e01b81526000918291829081907f00000000000000000000000000000000000000000000000000000000000000006001600160a01b03169063fc6f78659061144a908690600401611ead565b60408051808303816000875af1158015611468573d6000803e3d6000fd5b505050506040513d601f19601f8201168201806040525081019061148c9190611ef0565b915091507f00000000000000000000000000000000000000000000000000000000000000006001600160a01b03167f00000000000000000000000000000000000000000000000000000000000000006001600160a01b031610156114f5578194508093506114fc565b8094508193505b5050509091565b6040805160028082526060820183526000928392919060208301908036833701905050905060038054906101000a900463ffffffff168160008151811061154c5761154c611f2a565b602002602001019063ffffffff16908163ffffffff168152505060008160018151811061157b5761157b611f2a565b63ffffffff9092166020928302919091019091015260405163883bdbfd60e01b81526001600160a01b037f0000000000000000000000000000000000000000000000000000000000000000169063883bdbfd906115dc908490600401611f40565b600060405180830381865afa92505050801561161a57506040513d6000823e601f3d908101601f191682016040526116179190810190612053565b60015b61162857627fffff91505090565b60008260008151811061163d5761163d611f2a565b60200260200101518360018151811061165857611658611f2a565b602002602001015161166a919061211f565b60035490915060009061168a906301000000900463ffffffff168361214c565b9695505050505050565b60006040518060a001604052806002548152602001856001600160801b031681526020016000815260200160008152602001426102586116d49190611d9a565b905260408051630624e65f60e11b81528251600482015260208301516001600160801b03166024820152908201516044820152606082015160648201526080820151608482015290915060009081906001600160a01b037f00000000000000000000000000000000000000000000000000000000000000001690630c49ccbe9060a40160408051808303816000875af1158015611775573d6000803e3d6000fd5b505050506040513d601f19601f820116820180604052508101906117999190611ef0565b6040805160808101825260025481523060208201526001600160801b038183018190526060820152905163fc6f786560e01b81529294509092509060009081907f00000000000000000000000000000000000000000000000000000000000000006001600160a01b03169063fc6f786590611818908690600401611ead565b60408051808303816000875af1158015611836573d6000803e3d6000fd5b505050506040513d601f19601f8201168201806040525081019061185a9190611ef0565b90925090506118698286611d9a565b94506118758185611d9a565b935060006040518060c0016040528060025481526020018781526020018681526020016000815260200160008152602001426102586118b49190611d9a565b90526040805163219f5d1760e01b81528251600482015260208301516024820152908201516044820152606082015160648201526080820151608482015260a082015160a48201529091506000907f00000000000000000000000000000000000000000000000000000000000000006001600160a01b03169063219f5d179060c4016060604051808303816000875af1158015611955573d6000803e3d6000fd5b505050506040513d601f19601f820116820180604052508101906119799190612198565b505060028054604080518e840b8152928d900b60208401526001600160801b038416908301529192507f831c80419255c1b7126d6668c6ddc25361b564edbd74df554ac3d049963a286a9060600160405180910390a25050505050505050505050565b6000546001600160a01b031633146105ec5760405162461bcd60e51b815260206004820181905260248201527f4f776e61626c653a2063616c6c6572206973206e6f7420746865206f776e6572604482015260640161045e565b600080546001600160a01b038381166001600160a01b0319831681178455604051919092169283917f8be0079c531659141344cd1fd0a4f28419497f9722a3daafe3b4186f6b6457e09190a35050565b6001600160a01b03811681146112d957600080fd5b600060208284031215611aad57600080fd5b8135611ab881611a86565b9392505050565b600060208284031215611ad157600080fd5b813563ffffffff81168114611ab857600080fd5b8060020b81146112d957600080fd5b600080600060608486031215611b0957600080fd5b83359250602084013591506040840135611b2281611ae5565b809150509250925092565b600080600060608486031215611b4257600080fd5b8335611b4d81611a86565b9250602084013591506040840135611b2281611a86565b600060208284031215611b7657600080fd5b8135611ab881611ae5565b8051611b8c81611a86565b919050565b805162ffffff81168114611b8c57600080fd5b8051611b8c81611ae5565b80516001600160801b0381168114611b8c57600080fd5b6000806000806000806000806000806000806101808d8f031215611be957600080fd5b8c516bffffffffffffffffffffffff81168114611c0557600080fd5b9b50611c1360208e01611b81565b9a50611c2160408e01611b81565b9950611c2f60608e01611b81565b9850611c3d60808e01611b91565b9750611c4b60a08e01611ba4565b9650611c5960c08e01611ba4565b9550611c6760e08e01611baf565b94506101008d015193506101208d01519250611c866101408e01611baf565b9150611c956101608e01611baf565b90509295989b509295989b509295989b565b634e487b7160e01b600052601160045260246000fd5b600282810b9082900b03627fffff198112627fffff82131715611ce257611ce2611ca7565b92915050565b600281810b9083900b01627fffff8113627fffff1982121715611ce257611ce2611ca7565b60208082526016908201527513134e8810dbdb9d1c9858dd081a5cc81b1bd8dad95960521b604082015260600190565b600060208284031215611d4f57600080fd5b5051919050565b600060208284031215611d6857600080fd5b81518015158114611ab857600080fd5b60008160020b627fffff198103611d9157611d91611ca7565b60000392915050565b80820180821115611ce257611ce2611ca7565b81516001600160a01b0316815261016081016020830151611dd960208401826001600160a01b03169052565b506040830151611df0604084018262ffffff169052565b506060830151611e05606084018260020b9052565b506080830151611e1a608084018260020b9052565b5060a083015160a083015260c083015160c083015260e083015160e083015261010080840151818401525061012080840151611e60828501826001600160a01b03169052565b505061014092830151919092015290565b60008060008060808587031215611e8757600080fd5b84519350611e9760208601611baf565b6040860151606090960151949790965092505050565b815181526020808301516001600160a01b0316908201526040808301516001600160801b0390811691830191909152606092830151169181019190915260800190565b60008060408385031215611f0357600080fd5b505080516020909101519092909150565b634e487b7160e01b600052604160045260246000fd5b634e487b7160e01b600052603260045260246000fd5b6020808252825182820181905260009190848201906040850190845b81811015611f7e57835163ffffffff1683529284019291840191600101611f5c565b50909695505050505050565b604051601f8201601f1916810167ffffffffffffffff81118282101715611fb357611fb3611f14565b604052919050565b600067ffffffffffffffff821115611fd557611fd5611f14565b5060051b60200190565b600082601f830112611ff057600080fd5b8151602061200561200083611fbb565b611f8a565b82815260059290921b8401810191818101908684111561202457600080fd5b8286015b8481101561204857805161203b81611a86565b8352918301918301612028565b509695505050505050565b6000806040838503121561206657600080fd5b825167ffffffffffffffff8082111561207e57600080fd5b818501915085601f83011261209257600080fd5b815160206120a261200083611fbb565b82815260059290921b840181019181810190898411156120c157600080fd5b948201945b838610156120ef5785518060060b81146120e05760008081fd5b825294820194908201906120c6565b9188015191965090935050508082111561210857600080fd5b5061211585828601611fdf565b9150509250929050565b600682810b9082900b03667fffffffffffff198112667fffffffffffff82131715611ce257611ce2611ca7565b60008160060b8360060b8061217157634e487b7160e01b600052601260045260246000fd5b667fffffffffffff1982146000198214161561218f5761218f611ca7565b90059392505050565b6000806000606084860312156121ad57600080fd5b6121b684611baf565b92506020840151915060408401519050925092509256fea2646970667358221220752e410d996c1ddaff1f9c5d60c1df916c2459aff8b80952b9dc8e9b8925942b64736f6c63430008110033","opcodes":"PUSH2 0x100 PUSH1 0x40 MSTORE CALLVALUE DUP1 ISZERO PUSH3 0x12 JUMPI PUSH1 0x0 DUP1 REVERT JUMPDEST POP PUSH1 0x40 MLOAD PUSH3 0x262F CODESIZE SUB DUP1 PUSH3 0x262F DUP4 CODECOPY DUP2 ADD PUSH1 0x40 DUP2 SWAP1 MSTORE PUSH3 0x35 SWAP2 PUSH3 0x276 JUMP JUMPDEST PUSH3 0x40 CALLER PUSH3 0x209 JUMP JUMPDEST PUSH1 0x1 DUP1 SSTORE PUSH1 0x1 PUSH1 0x1 PUSH1 0xA0 SHL SUB DUP7 AND ISZERO DUP1 ISZERO SWAP1 PUSH3 0x65 JUMPI POP PUSH1 0x1 PUSH1 0x1 PUSH1 0xA0 SHL SUB DUP6 AND ISZERO ISZERO JUMPDEST DUP1 ISZERO PUSH3 0x7A JUMPI POP PUSH1 0x1 PUSH1 0x1 PUSH1 0xA0 SHL SUB DUP5 AND ISZERO ISZERO JUMPDEST DUP1 ISZERO PUSH3 0x8F JUMPI POP PUSH1 0x1 PUSH1 0x1 PUSH1 0xA0 SHL SUB DUP4 AND ISZERO ISZERO JUMPDEST PUSH3 0xE1 JUMPI PUSH1 0x40 MLOAD PUSH3 0x461BCD PUSH1 0xE5 SHL DUP2 MSTORE PUSH1 0x20 PUSH1 0x4 DUP3 ADD MSTORE PUSH1 0x19 PUSH1 0x24 DUP3 ADD MSTORE PUSH32 0x4C4D3A205A65726F20616464726573732070726F766964656400000000000000 PUSH1 0x44 DUP3 ADD MSTORE PUSH1 0x64 ADD JUMPDEST PUSH1 0x40 MLOAD DUP1 SWAP2 SUB SWAP1 REVERT JUMPDEST PUSH1 0x0 DUP3 PUSH1 0x2 SIGNEXTEND SGT DUP1 ISZERO PUSH3 0xF9 JUMPI POP PUSH2 0x4E20 DUP3 PUSH1 0x2 SIGNEXTEND SLT JUMPDEST PUSH3 0x147 JUMPI PUSH1 0x40 MLOAD PUSH3 0x461BCD PUSH1 0xE5 SHL DUP2 MSTORE PUSH1 0x20 PUSH1 0x4 DUP3 ADD MSTORE PUSH1 0x19 PUSH1 0x24 DUP3 ADD MSTORE PUSH32 0x4C4D3A20496E76616C6964207469636B2064697374616E636500000000000000 PUSH1 0x44 DUP3 ADD MSTORE PUSH1 0x64 ADD PUSH3 0xD8 JUMP JUMPDEST PUSH2 0x258 DUP2 PUSH4 0xFFFFFFFF AND LT ISZERO DUP1 ISZERO PUSH3 0x169 JUMPI POP PUSH3 0x15180 DUP2 PUSH4 0xFFFFFFFF AND GT ISZERO JUMPDEST PUSH3 0x1B7 JUMPI PUSH1 0x40 MLOAD PUSH3 0x461BCD PUSH1 0xE5 SHL DUP2 MSTORE PUSH1 0x20 PUSH1 0x4 DUP3 ADD MSTORE PUSH1 0x19 PUSH1 0x24 DUP3 ADD MSTORE PUSH32 0x4C4D3A20496E76616C6964205457415020696E74657276616C00000000000000 PUSH1 0x44 DUP3 ADD MSTORE PUSH1 0x64 ADD PUSH3 0xD8 JUMP JUMPDEST PUSH1 0x1 PUSH1 0x1 PUSH1 0xA0 SHL SUB SWAP6 DUP7 AND PUSH1 0x80 MSTORE SWAP4 DUP6 AND PUSH1 0xA0 MSTORE SWAP2 DUP5 AND PUSH1 0xC0 MSTORE SWAP1 SWAP3 AND PUSH1 0xE0 MSTORE PUSH1 0x3 DUP1 SLOAD PUSH4 0xFFFFFFFF SWAP1 SWAP3 AND PUSH4 0x1000000 MUL PUSH7 0xFFFFFFFFFFFFFF NOT SWAP1 SWAP3 AND PUSH3 0xFFFFFF SWAP1 SWAP4 AND SWAP3 SWAP1 SWAP3 OR OR SWAP1 SSTORE PUSH3 0x30B JUMP JUMPDEST PUSH1 0x0 DUP1 SLOAD PUSH1 0x1 PUSH1 0x1 PUSH1 0xA0 SHL SUB DUP4 DUP2 AND PUSH1 0x1 PUSH1 0x1 PUSH1 0xA0 SHL SUB NOT DUP4 AND DUP2 OR DUP5 SSTORE PUSH1 0x40 MLOAD SWAP2 SWAP1 SWAP3 AND SWAP3 DUP4 SWAP2 PUSH32 0x8BE0079C531659141344CD1FD0A4F28419497F9722A3DAAFE3B4186F6B6457E0 SWAP2 SWAP1 LOG3 POP POP JUMP JUMPDEST DUP1 MLOAD PUSH1 0x1 PUSH1 0x1 PUSH1 0xA0 SHL SUB DUP2 AND DUP2 EQ PUSH3 0x271 JUMPI PUSH1 0x0 DUP1 REVERT JUMPDEST SWAP2 SWAP1 POP JUMP JUMPDEST PUSH1 0x0 DUP1 PUSH1 0x0 DUP1 PUSH1 0x0 DUP1 PUSH1 0xC0 DUP8 DUP10 SUB SLT ISZERO PUSH3 0x290 JUMPI PUSH1 0x0 DUP1 REVERT JUMPDEST PUSH3 0x29B DUP8 PUSH3 0x259 JUMP JUMPDEST SWAP6 POP PUSH3 0x2AB PUSH1 0x20 DUP9 ADD PUSH3 0x259 JUMP JUMPDEST SWAP5 POP PUSH3 0x2BB PUSH1 0x40 DUP9 ADD PUSH3 0x259 JUMP JUMPDEST SWAP4 POP PUSH3 0x2CB PUSH1 0x60 DUP9 ADD PUSH3 0x259 JUMP JUMPDEST SWAP3 POP PUSH1 0x80 DUP8 ADD MLOAD DUP1 PUSH1 0x2 SIGNEXTEND DUP2 EQ PUSH3 0x2E2 JUMPI PUSH1 0x0 DUP1 REVERT JUMPDEST PUSH1 0xA0 DUP9 ADD MLOAD SWAP1 SWAP3 POP PUSH4 0xFFFFFFFF DUP2 AND DUP2 EQ PUSH3 0x2FD JUMPI PUSH1 0x0 DUP1 REVERT JUMPDEST DUP1 SWAP2 POP POP SWAP3 SWAP6 POP SWAP3 SWAP6 POP SWAP3 SWAP6 JUMP JUMPDEST PUSH1 0x80 MLOAD PUSH1 0xA0 MLOAD PUSH1 0xC0 MLOAD PUSH1 0xE0 MLOAD PUSH2 0x2203 PUSH3 0x42C PUSH1 0x0 CODECOPY PUSH1 0x0 DUP2 DUP2 PUSH2 0x28B ADD MSTORE DUP2 DUP2 PUSH2 0x982 ADD MSTORE DUP2 DUP2 PUSH2 0xB4B ADD MSTORE DUP2 DUP2 PUSH2 0xBF4 ADD MSTORE DUP2 DUP2 PUSH2 0xC4D ADD MSTORE DUP2 DUP2 PUSH2 0xCA3 ADD MSTORE DUP2 DUP2 PUSH2 0xD22 ADD MSTORE DUP2 DUP2 PUSH2 0xD5F ADD MSTORE DUP2 DUP2 PUSH2 0xDD0 ADD MSTORE DUP2 DUP2 PUSH2 0xE41 ADD MSTORE DUP2 DUP2 PUSH2 0xEA7 ADD MSTORE DUP2 DUP2 PUSH2 0x108D ADD MSTORE PUSH2 0x1492 ADD MSTORE PUSH1 0x0 DUP2 DUP2 PUSH2 0x136 ADD MSTORE DUP2 DUP2 PUSH2 0x8AA ADD MSTORE DUP2 DUP2 PUSH2 0xA97 ADD MSTORE DUP2 DUP2 PUSH2 0xC1E ADD MSTORE DUP2 DUP2 PUSH2 0xC73 ADD MSTORE DUP2 DUP2 PUSH2 0xCCD ADD MSTORE DUP2 DUP2 PUSH2 0xCFC ADD MSTORE DUP2 DUP2 PUSH2 0xD89 ADD MSTORE DUP2 DUP2 PUSH2 0xDFA ADD MSTORE DUP2 DUP2 PUSH2 0xE6B ADD MSTORE DUP2 DUP2 PUSH2 0xED1 ADD MSTORE DUP2 DUP2 PUSH2 0x1050 ADD MSTORE PUSH2 0x14BC ADD MSTORE PUSH1 0x0 DUP2 DUP2 PUSH2 0x343 ADD MSTORE PUSH2 0x15A7 ADD MSTORE PUSH1 0x0 DUP2 DUP2 PUSH2 0x239 ADD MSTORE DUP2 DUP2 PUSH2 0x4BB ADD MSTORE DUP2 DUP2 PUSH2 0xA68 ADD MSTORE DUP2 DUP2 PUSH2 0xB1C ADD MSTORE DUP2 DUP2 PUSH2 0xF35 ADD MSTORE DUP2 DUP2 PUSH2 0x140D ADD MSTORE DUP2 DUP2 PUSH2 0x172D ADD MSTORE DUP2 DUP2 PUSH2 0x17DB ADD MSTORE PUSH2 0x1904 ADD MSTORE PUSH2 0x2203 PUSH1 0x0 RETURN INVALID PUSH1 0x80 PUSH1 0x40 MSTORE PUSH1 0x4 CALLDATASIZE LT PUSH2 0x118 JUMPI PUSH1 0x0 CALLDATALOAD PUSH1 0xE0 SHR DUP1 PUSH4 0xA4E2D634 GT PUSH2 0xA0 JUMPI DUP1 PUSH4 0xCEEFE5D1 GT PUSH2 0x64 JUMPI DUP1 PUSH4 0xCEEFE5D1 EQ PUSH2 0x365 JUMPI DUP1 PUSH4 0xD814E214 EQ PUSH2 0x389 JUMPI DUP1 PUSH4 0xDD1B9C4A EQ PUSH2 0x3A9 JUMPI DUP1 PUSH4 0xF2FDE38B EQ PUSH2 0x3D3 JUMPI DUP1 PUSH4 0xF83D08BA EQ PUSH2 0x3F3 JUMPI PUSH1 0x0 DUP1 REVERT JUMPDEST DUP1 PUSH4 0xA4E2D634 EQ PUSH2 0x2AD JUMPI DUP1 PUSH4 0xA500775E EQ PUSH2 0x2DE JUMPI DUP1 PUSH4 0xA51C8E2F EQ PUSH2 0x2FE JUMPI DUP1 PUSH4 0xB37FD190 EQ PUSH2 0x311 JUMPI DUP1 PUSH4 0xC3C68747 EQ PUSH2 0x331 JUMPI PUSH1 0x0 DUP1 REVERT JUMPDEST DUP1 PUSH4 0x781BBC2C GT PUSH2 0xE7 JUMPI DUP1 PUSH4 0x781BBC2C EQ PUSH2 0x1CE JUMPI DUP1 PUSH4 0x7872BF5F EQ PUSH2 0x207 JUMPI DUP1 PUSH4 0x791B98BC EQ PUSH2 0x227 JUMPI DUP1 PUSH4 0x8DA5CB5B EQ PUSH2 0x25B JUMPI DUP1 PUSH4 0x8E4704AD EQ PUSH2 0x279 JUMPI PUSH1 0x0 DUP1 REVERT JUMPDEST DUP1 PUSH4 0x23E66E0 EQ PUSH2 0x124 JUMPI DUP1 PUSH4 0x48626A8C EQ PUSH2 0x175 JUMPI DUP1 PUSH4 0x4B8F3C89 EQ PUSH2 0x1A2 JUMPI DUP1 PUSH4 0x715018A6 EQ PUSH2 0x1B9 JUMPI PUSH1 0x0 DUP1 REVERT JUMPDEST CALLDATASIZE PUSH2 0x11F JUMPI STOP JUMPDEST PUSH1 0x0 DUP1 REVERT JUMPDEST CALLVALUE DUP1 ISZERO PUSH2 0x130 JUMPI PUSH1 0x0 DUP1 REVERT JUMPDEST POP PUSH2 0x158 PUSH32 0x0 DUP2 JUMP JUMPDEST PUSH1 0x40 MLOAD PUSH1 0x1 PUSH1 0x1 PUSH1 0xA0 SHL SUB SWAP1 SWAP2 AND DUP2 MSTORE PUSH1 0x20 ADD JUMPDEST PUSH1 0x40 MLOAD DUP1 SWAP2 SUB SWAP1 RETURN JUMPDEST CALLVALUE DUP1 ISZERO PUSH2 0x181 JUMPI PUSH1 0x0 DUP1 REVERT JUMPDEST POP PUSH1 0x3 SLOAD PUSH2 0x18F SWAP1 PUSH1 0x2 SIGNEXTEND DUP2 JUMP JUMPDEST PUSH1 0x40 MLOAD PUSH1 0x2 SWAP2 SWAP1 SWAP2 SIGNEXTEND DUP2 MSTORE PUSH1 0x20 ADD PUSH2 0x16C JUMP JUMPDEST CALLVALUE DUP1 ISZERO PUSH2 0x1AE JUMPI PUSH1 0x0 DUP1 REVERT JUMPDEST POP PUSH2 0x1B7 PUSH2 0x408 JUMP JUMPDEST STOP JUMPDEST CALLVALUE DUP1 ISZERO PUSH2 0x1C5 JUMPI PUSH1 0x0 DUP1 REVERT JUMPDEST POP PUSH2 0x1B7 PUSH2 0x5EE JUMP JUMPDEST CALLVALUE DUP1 ISZERO PUSH2 0x1DA JUMPI PUSH1 0x0 DUP1 REVERT JUMPDEST POP PUSH1 0x3 SLOAD PUSH2 0x1F2 SWAP1 PUSH4 0x1000000 SWAP1 DIV PUSH4 0xFFFFFFFF AND DUP2 JUMP JUMPDEST PUSH1 0x40 MLOAD PUSH4 0xFFFFFFFF SWAP1 SWAP2 AND DUP2 MSTORE PUSH1 0x20 ADD PUSH2 0x16C JUMP JUMPDEST CALLVALUE DUP1 ISZERO PUSH2 0x213 JUMPI PUSH1 0x0 DUP1 REVERT JUMPDEST POP PUSH2 0x1B7 PUSH2 0x222 CALLDATASIZE PUSH1 0x4 PUSH2 0x1A9B JUMP JUMPDEST PUSH2 0x600 JUMP JUMPDEST CALLVALUE DUP1 ISZERO PUSH2 0x233 JUMPI PUSH1 0x0 DUP1 REVERT JUMPDEST POP PUSH2 0x158 PUSH32 0x0 DUP2 JUMP JUMPDEST CALLVALUE DUP1 ISZERO PUSH2 0x267 JUMPI PUSH1 0x0 DUP1 REVERT JUMPDEST POP PUSH1 0x0 SLOAD PUSH1 0x1 PUSH1 0x1 PUSH1 0xA0 SHL SUB AND PUSH2 0x158 JUMP JUMPDEST CALLVALUE DUP1 ISZERO PUSH2 0x285 JUMPI PUSH1 0x0 DUP1 REVERT JUMPDEST POP PUSH2 0x158 PUSH32 0x0 DUP2 JUMP JUMPDEST CALLVALUE DUP1 ISZERO PUSH2 0x2B9 JUMPI PUSH1 0x0 DUP1 REVERT JUMPDEST POP PUSH1 0x3 SLOAD PUSH2 0x2CE SWAP1 PUSH1 0x1 PUSH1 0x38 SHL SWAP1 DIV PUSH1 0xFF AND DUP2 JUMP JUMPDEST PUSH1 0x40 MLOAD SWAP1 ISZERO ISZERO DUP2 MSTORE PUSH1 0x20 ADD PUSH2 0x16C JUMP JUMPDEST CALLVALUE DUP1 ISZERO PUSH2 0x2EA JUMPI PUSH1 0x0 DUP1 REVERT JUMPDEST POP PUSH2 0x1B7 PUSH2 0x2F9 CALLDATASIZE PUSH1 0x4 PUSH2 0x1ABF JUMP JUMPDEST PUSH2 0x6B3 JUMP JUMPDEST PUSH2 0x1B7 PUSH2 0x30C CALLDATASIZE PUSH1 0x4 PUSH2 0x1AF4 JUMP JUMPDEST PUSH2 0x7AD JUMP JUMPDEST CALLVALUE DUP1 ISZERO PUSH2 0x31D JUMPI PUSH1 0x0 DUP1 REVERT JUMPDEST POP PUSH2 0x1B7 PUSH2 0x32C CALLDATASIZE PUSH1 0x4 PUSH2 0x1B2D JUMP JUMPDEST PUSH2 0x101C JUMP JUMPDEST CALLVALUE DUP1 ISZERO PUSH2 0x33D JUMPI PUSH1 0x0 DUP1 REVERT JUMPDEST POP PUSH2 0x158 PUSH32 0x0 DUP2 JUMP JUMPDEST CALLVALUE DUP1 ISZERO PUSH2 0x371 JUMPI PUSH1 0x0 DUP1 REVERT JUMPDEST POP PUSH2 0x37B PUSH1 0x2 SLOAD DUP2 JUMP JUMPDEST PUSH1 0x40 MLOAD SWAP1 DUP2 MSTORE PUSH1 0x20 ADD PUSH2 0x16C JUMP JUMPDEST CALLVALUE DUP1 ISZERO PUSH2 0x395 JUMPI PUSH1 0x0 DUP1 REVERT JUMPDEST POP PUSH2 0x1B7 PUSH2 0x3A4 CALLDATASIZE PUSH1 0x4 PUSH2 0x1B64 JUMP JUMPDEST PUSH2 0x1187 JUMP JUMPDEST CALLVALUE DUP1 ISZERO PUSH2 0x3B5 JUMPI PUSH1 0x0 DUP1 REVERT JUMPDEST POP PUSH2 0x3BF PUSH2 0xBB8 DUP2 JUMP JUMPDEST PUSH1 0x40 MLOAD PUSH3 0xFFFFFF SWAP1 SWAP2 AND DUP2 MSTORE PUSH1 0x20 ADD PUSH2 0x16C JUMP JUMPDEST CALLVALUE DUP1 ISZERO PUSH2 0x3DF JUMPI PUSH1 0x0 DUP1 REVERT JUMPDEST POP PUSH2 0x1B7 PUSH2 0x3EE CALLDATASIZE PUSH1 0x4 PUSH2 0x1A9B JUMP JUMPDEST PUSH2 0x1263 JUMP JUMPDEST CALLVALUE DUP1 ISZERO PUSH2 0x3FF JUMPI PUSH1 0x0 DUP1 REVERT JUMPDEST POP PUSH2 0x1B7 PUSH2 0x12DC JUMP JUMPDEST PUSH2 0x410 PUSH2 0x1375 JUMP JUMPDEST PUSH1 0x2 SLOAD PUSH1 0x0 SUB PUSH2 0x467 JUMPI PUSH1 0x40 MLOAD PUSH3 0x461BCD PUSH1 0xE5 SHL DUP2 MSTORE PUSH1 0x20 PUSH1 0x4 DUP3 ADD MSTORE PUSH1 0x1C PUSH1 0x24 DUP3 ADD MSTORE PUSH32 0x4C4D3A20506F736974696F6E206E6F7420696E697469616C697A656400000000 PUSH1 0x44 DUP3 ADD MSTORE PUSH1 0x64 ADD JUMPDEST PUSH1 0x40 MLOAD DUP1 SWAP2 SUB SWAP1 REVERT JUMPDEST PUSH1 0x0 DUP1 PUSH2 0x472 PUSH2 0x13CE JUMP JUMPDEST PUSH1 0x40 DUP1 MLOAD DUP4 DUP2 MSTORE PUSH1 0x20 DUP2 ADD DUP4 SWAP1 MSTORE SWAP3 SWAP5 POP SWAP1 SWAP3 POP PUSH32 0x49D512BF9CB224241C05691E73EB9FAB078CF350C7DBCBCF66788F1FC0CC8B0B SWAP2 ADD PUSH1 0x40 MLOAD DUP1 SWAP2 SUB SWAP1 LOG1 PUSH1 0x0 DUP1 PUSH1 0x0 DUP1 PUSH1 0x0 PUSH32 0x0 PUSH1 0x1 PUSH1 0x1 PUSH1 0xA0 SHL SUB AND PUSH4 0x99FBAB88 PUSH1 0x2 SLOAD PUSH1 0x40 MLOAD DUP3 PUSH4 0xFFFFFFFF AND PUSH1 0xE0 SHL DUP2 MSTORE PUSH1 0x4 ADD PUSH2 0x509 SWAP2 DUP2 MSTORE PUSH1 0x20 ADD SWAP1 JUMP JUMPDEST PUSH2 0x180 PUSH1 0x40 MLOAD DUP1 DUP4 SUB DUP2 DUP7 GAS STATICCALL ISZERO DUP1 ISZERO PUSH2 0x527 JUMPI RETURNDATASIZE PUSH1 0x0 DUP1 RETURNDATACOPY RETURNDATASIZE PUSH1 0x0 REVERT JUMPDEST POP POP POP POP PUSH1 0x40 MLOAD RETURNDATASIZE PUSH1 0x1F NOT PUSH1 0x1F DUP3 ADD AND DUP3 ADD DUP1 PUSH1 0x40 MSTORE POP DUP2 ADD SWAP1 PUSH2 0x54B SWAP2 SWAP1 PUSH2 0x1BC6 JUMP JUMPDEST POP POP POP POP SWAP8 POP SWAP8 POP SWAP8 POP POP SWAP7 POP SWAP7 POP POP POP PUSH1 0x0 PUSH2 0x566 PUSH2 0x1503 JUMP JUMPDEST SWAP1 POP PUSH3 0x7FFFFE NOT PUSH1 0x2 DUP3 SWAP1 SIGNEXTEND ADD PUSH2 0x584 JUMPI POP POP POP POP POP POP POP POP PUSH2 0x5E3 JUMP JUMPDEST PUSH1 0x3 SLOAD PUSH1 0x0 SWAP1 PUSH2 0x597 SWAP1 PUSH1 0x2 SIGNEXTEND DUP4 PUSH2 0x1CBD JUMP JUMPDEST PUSH1 0x3 SLOAD SWAP1 SWAP2 POP PUSH1 0x0 SWAP1 PUSH2 0x5AD SWAP1 PUSH1 0x2 SIGNEXTEND DUP5 PUSH2 0x1CE8 JUMP JUMPDEST SWAP1 POP DUP5 PUSH1 0x2 SIGNEXTEND DUP3 PUSH1 0x2 SIGNEXTEND SGT DUP1 PUSH2 0x5C8 JUMPI POP DUP6 PUSH1 0x2 SIGNEXTEND DUP2 PUSH1 0x2 SIGNEXTEND SLT JUMPDEST ISZERO PUSH2 0x5D8 JUMPI PUSH2 0x5D8 DUP5 DUP4 DUP4 PUSH2 0x1694 JUMP JUMPDEST POP POP POP POP POP POP POP POP POP POP JUMPDEST PUSH2 0x5EC PUSH1 0x1 DUP1 SSTORE JUMP JUMPDEST JUMP JUMPDEST PUSH2 0x5F6 PUSH2 0x19DC JUMP JUMPDEST PUSH2 0x5EC PUSH1 0x0 PUSH2 0x1A36 JUMP JUMPDEST PUSH2 0x608 PUSH2 0x19DC JUMP JUMPDEST PUSH1 0x3 SLOAD PUSH1 0x1 PUSH1 0x38 SHL SWAP1 DIV PUSH1 0xFF AND ISZERO PUSH2 0x632 JUMPI PUSH1 0x40 MLOAD PUSH3 0x461BCD PUSH1 0xE5 SHL DUP2 MSTORE PUSH1 0x4 ADD PUSH2 0x45E SWAP1 PUSH2 0x1D0D JUMP JUMPDEST SELFBALANCE DUP1 PUSH2 0x678 JUMPI PUSH1 0x40 MLOAD PUSH3 0x461BCD PUSH1 0xE5 SHL DUP2 MSTORE PUSH1 0x20 PUSH1 0x4 DUP3 ADD MSTORE PUSH1 0x15 PUSH1 0x24 DUP3 ADD MSTORE PUSH21 0x4C4D3A204E6F205242544320746F20726573637565 PUSH1 0x58 SHL PUSH1 0x44 DUP3 ADD MSTORE PUSH1 0x64 ADD PUSH2 0x45E JUMP JUMPDEST PUSH1 0x40 MLOAD PUSH1 0x1 PUSH1 0x1 PUSH1 0xA0 SHL SUB DUP4 AND SWAP1 DUP3 ISZERO PUSH2 0x8FC MUL SWAP1 DUP4 SWAP1 PUSH1 0x0 DUP2 DUP2 DUP2 DUP6 DUP9 DUP9 CALL SWAP4 POP POP POP POP ISZERO DUP1 ISZERO PUSH2 0x6AE JUMPI RETURNDATASIZE PUSH1 0x0 DUP1 RETURNDATACOPY RETURNDATASIZE PUSH1 0x0 REVERT JUMPDEST POP POP POP JUMP JUMPDEST PUSH2 0x6BB PUSH2 0x19DC JUMP JUMPDEST PUSH1 0x3 SLOAD PUSH1 0x1 PUSH1 0x38 SHL SWAP1 DIV PUSH1 0xFF AND ISZERO PUSH2 0x6E5 JUMPI PUSH1 0x40 MLOAD PUSH3 0x461BCD PUSH1 0xE5 SHL DUP2 MSTORE PUSH1 0x4 ADD PUSH2 0x45E SWAP1 PUSH2 0x1D0D JUMP JUMPDEST PUSH2 0x258 DUP2 PUSH4 0xFFFFFFFF AND LT ISZERO DUP1 ISZERO PUSH2 0x706 JUMPI POP PUSH3 0x15180 DUP2 PUSH4 0xFFFFFFFF AND GT ISZERO JUMPDEST PUSH2 0x752 JUMPI PUSH1 0x40 MLOAD PUSH3 0x461BCD PUSH1 0xE5 SHL DUP2 MSTORE PUSH1 0x20 PUSH1 0x4 DUP3 ADD MSTORE PUSH1 0x19 PUSH1 0x24 DUP3 ADD MSTORE PUSH32 0x4C4D3A20496E76616C6964205457415020696E74657276616C00000000000000 PUSH1 0x44 DUP3 ADD MSTORE PUSH1 0x64 ADD PUSH2 0x45E JUMP JUMPDEST PUSH1 0x3 DUP1 SLOAD PUSH7 0xFFFFFFFF000000 NOT AND PUSH4 0x1000000 PUSH4 0xFFFFFFFF DUP5 AND SWAP1 DUP2 MUL SWAP2 SWAP1 SWAP2 OR SWAP1 SWAP2 SSTORE PUSH1 0x40 MLOAD SWAP1 DUP2 MSTORE PUSH32 0xC99F383ECD620C333255BD2AEF929EEDD6808999BAC9BFC5F53E10D876ABF1CE SWAP1 PUSH1 0x20 ADD JUMPDEST PUSH1 0x40 MLOAD DUP1 SWAP2 SUB SWAP1 LOG1 POP JUMP JUMPDEST PUSH2 0x7B5 PUSH2 0x19DC JUMP JUMPDEST PUSH2 0x7BD PUSH2 0x1375 JUMP JUMPDEST PUSH1 0x2 SLOAD ISZERO PUSH2 0x80D JUMPI PUSH1 0x40 MLOAD PUSH3 0x461BCD PUSH1 0xE5 SHL DUP2 MSTORE PUSH1 0x20 PUSH1 0x4 DUP3 ADD DUP2 SWAP1 MSTORE PUSH1 0x24 DUP3 ADD MSTORE PUSH32 0x4C4D3A20506F736974696F6E20616C726561647920696E697469616C697A6564 PUSH1 0x44 DUP3 ADD MSTORE PUSH1 0x64 ADD PUSH2 0x45E JUMP JUMPDEST PUSH1 0x3 SLOAD PUSH1 0x1 PUSH1 0x38 SHL SWAP1 DIV PUSH1 0xFF AND ISZERO PUSH2 0x837 JUMPI PUSH1 0x40 MLOAD PUSH3 0x461BCD PUSH1 0xE5 SHL DUP2 MSTORE PUSH1 0x4 ADD PUSH2 0x45E SWAP1 PUSH2 0x1D0D JUMP JUMPDEST PUSH1 0x0 DUP4 GT DUP1 ISZERO PUSH2 0x847 JUMPI POP PUSH1 0x0 DUP3 GT JUMPDEST PUSH2 0x893 JUMPI PUSH1 0x40 MLOAD PUSH3 0x461BCD PUSH1 0xE5 SHL DUP2 MSTORE PUSH1 0x20 PUSH1 0x4 DUP3 ADD MSTORE PUSH1 0x1C PUSH1 0x24 DUP3 ADD MSTORE PUSH32 0x4C4D3A20416D6F756E7473206D75737420626520706F73697469766500000000 PUSH1 0x44 DUP3 ADD MSTORE PUSH1 0x64 ADD PUSH2 0x45E JUMP JUMPDEST PUSH1 0x40 MLOAD PUSH4 0x70A08231 PUSH1 0xE0 SHL DUP2 MSTORE ADDRESS PUSH1 0x4 DUP3 ADD MSTORE DUP4 SWAP1 PUSH32 0x0 PUSH1 0x1 PUSH1 0x1 PUSH1 0xA0 SHL SUB AND SWAP1 PUSH4 0x70A08231 SWAP1 PUSH1 0x24 ADD PUSH1 0x20 PUSH1 0x40 MLOAD DUP1 DUP4 SUB DUP2 DUP7 GAS STATICCALL ISZERO DUP1 ISZERO PUSH2 0x8F9 JUMPI RETURNDATASIZE PUSH1 0x0 DUP1 RETURNDATACOPY RETURNDATASIZE PUSH1 0x0 REVERT JUMPDEST POP POP POP POP PUSH1 0x40 MLOAD RETURNDATASIZE PUSH1 0x1F NOT PUSH1 0x1F DUP3 ADD AND DUP3 ADD DUP1 PUSH1 0x40 MSTORE POP DUP2 ADD SWAP1 PUSH2 0x91D SWAP2 SWAP1 PUSH2 0x1D3D JUMP JUMPDEST LT ISZERO PUSH2 0x96B JUMPI PUSH1 0x40 MLOAD PUSH3 0x461BCD PUSH1 0xE5 SHL DUP2 MSTORE PUSH1 0x20 PUSH1 0x4 DUP3 ADD MSTORE PUSH1 0x1D PUSH1 0x24 DUP3 ADD MSTORE PUSH32 0x4C4D3A20496E73756666696369656E7420534F4F4E2062616C616E6365000000 PUSH1 0x44 DUP3 ADD MSTORE PUSH1 0x64 ADD PUSH2 0x45E JUMP JUMPDEST PUSH1 0x40 MLOAD PUSH4 0x70A08231 PUSH1 0xE0 SHL DUP2 MSTORE ADDRESS PUSH1 0x4 DUP3 ADD MSTORE DUP3 SWAP1 PUSH32 0x0 PUSH1 0x1 PUSH1 0x1 PUSH1 0xA0 SHL SUB AND SWAP1 PUSH4 0x70A08231 SWAP1 PUSH1 0x24 ADD PUSH1 0x20 PUSH1 0x40 MLOAD DUP1 DUP4 SUB DUP2 DUP7 GAS STATICCALL ISZERO DUP1 ISZERO PUSH2 0x9D1 JUMPI RETURNDATASIZE PUSH1 0x0 DUP1 RETURNDATACOPY RETURNDATASIZE PUSH1 0x0 REVERT JUMPDEST POP POP POP POP PUSH1 0x40 MLOAD RETURNDATASIZE PUSH1 0x1F NOT PUSH1 0x1F DUP3 ADD AND DUP3 ADD DUP1 PUSH1 0x40 MSTORE POP DUP2 ADD SWAP1 PUSH2 0x9F5 SWAP2 SWAP1 PUSH2 0x1D3D JUMP JUMPDEST LT ISZERO PUSH2 0xA51 JUMPI PUSH1 0x40 MLOAD PUSH3 0x461BCD PUSH1 0xE5 SHL DUP2 MSTORE PUSH1 0x20 PUSH1 0x4 DUP3 ADD MSTORE PUSH1 0x25 PUSH1 0x24 DUP3 ADD MSTORE PUSH32 0x4C4D3A20496E73756666696369656E7420524254432028575242544329206261 PUSH1 0x44 DUP3 ADD MSTORE PUSH5 0x6C616E6365 PUSH1 0xD8 SHL PUSH1 0x64 DUP3 ADD MSTORE PUSH1 0x84 ADD PUSH2 0x45E JUMP JUMPDEST PUSH1 0x40 MLOAD PUSH4 0x95EA7B3 PUSH1 0xE0 SHL DUP2 MSTORE PUSH1 0x1 PUSH1 0x1 PUSH1 0xA0 SHL SUB PUSH32 0x0 DUP2 AND PUSH1 0x4 DUP4 ADD MSTORE PUSH1 0x24 DUP3 ADD DUP6 SWAP1 MSTORE PUSH32 0x0 AND SWAP1 PUSH4 0x95EA7B3 SWAP1 PUSH1 0x44 ADD PUSH1 0x20 PUSH1 0x40 MLOAD DUP1 DUP4 SUB DUP2 PUSH1 0x0 DUP8 GAS CALL ISZERO DUP1 ISZERO PUSH2 0xAE0 JUMPI RETURNDATASIZE PUSH1 0x0 DUP1 RETURNDATACOPY RETURNDATASIZE PUSH1 0x0 REVERT JUMPDEST POP POP POP POP PUSH1 0x40 MLOAD RETURNDATASIZE PUSH1 0x1F NOT PUSH1 0x1F DUP3 ADD AND DUP3 ADD DUP1 PUSH1 0x40 MSTORE POP DUP2 ADD SWAP1 PUSH2 0xB04 SWAP2 SWAP1 PUSH2 0x1D56 JUMP JUMPDEST POP PUSH1 0x40 MLOAD PUSH4 0x95EA7B3 PUSH1 0xE0 SHL DUP2 MSTORE PUSH1 0x1 PUSH1 0x1 PUSH1 0xA0 SHL SUB PUSH32 0x0 DUP2 AND PUSH1 0x4 DUP4 ADD MSTORE PUSH1 0x24 DUP3 ADD DUP5 SWAP1 MSTORE PUSH32 0x0 AND SWAP1 PUSH4 0x95EA7B3 SWAP1 PUSH1 0x44 ADD PUSH1 0x20 PUSH1 0x40 MLOAD DUP1 DUP4 SUB DUP2 PUSH1 0x0 DUP8 GAS CALL ISZERO DUP1 ISZERO PUSH2 0xB94 JUMPI RETURNDATASIZE PUSH1 0x0 DUP1 RETURNDATACOPY RETURNDATASIZE PUSH1 0x0 REVERT JUMPDEST POP POP POP POP PUSH1 0x40 MLOAD RETURNDATASIZE PUSH1 0x1F NOT PUSH1 0x1F DUP3 ADD AND DUP3 ADD DUP1 PUSH1 0x40 MSTORE POP DUP2 ADD SWAP1 PUSH2 0xBB8 SWAP2 SWAP1 PUSH2 0x1D56 JUMP JUMPDEST POP PUSH1 0x3 SLOAD PUSH1 0x0 SWAP1 PUSH2 0xBCC SWAP1 PUSH1 0x2 SIGNEXTEND DUP4 PUSH2 0x1CBD JUMP JUMPDEST PUSH1 0x3 SLOAD SWAP1 SWAP2 POP PUSH1 0x0 SWAP1 PUSH2 0xBE2 SWAP1 PUSH1 0x2 SIGNEXTEND DUP5 PUSH2 0x1CE8 JUMP JUMPDEST SWAP1 POP PUSH1 0x0 PUSH1 0x40 MLOAD DUP1 PUSH2 0x160 ADD PUSH1 0x40 MSTORE DUP1 PUSH32 0x0 PUSH1 0x1 PUSH1 0x1 PUSH1 0xA0 SHL SUB AND PUSH32 0x0 PUSH1 0x1 PUSH1 0x1 PUSH1 0xA0 SHL SUB AND LT PUSH2 0xC71 JUMPI PUSH32 0x0 PUSH2 0xC93 JUMP JUMPDEST PUSH32 0x0 JUMPDEST PUSH1 0x1 PUSH1 0x1 PUSH1 0xA0 SHL SUB AND DUP2 MSTORE PUSH1 0x20 ADD PUSH32 0x0 PUSH1 0x1 PUSH1 0x1 PUSH1 0xA0 SHL SUB AND PUSH32 0x0 PUSH1 0x1 PUSH1 0x1 PUSH1 0xA0 SHL SUB AND LT PUSH2 0xD20 JUMPI PUSH32 0x0 PUSH2 0xD42 JUMP JUMPDEST PUSH32 0x0 JUMPDEST PUSH1 0x1 PUSH1 0x1 PUSH1 0xA0 SHL SUB AND DUP2 MSTORE PUSH1 0x20 ADD PUSH2 0xBB8 PUSH3 0xFFFFFF AND DUP2 MSTORE PUSH1 0x20 ADD PUSH32 0x0 PUSH1 0x1 PUSH1 0x1 PUSH1 0xA0 SHL SUB AND PUSH32 0x0 PUSH1 0x1 PUSH1 0x1 PUSH1 0xA0 SHL SUB AND LT PUSH2 0xDC4 JUMPI PUSH2 0xDBF DUP5 PUSH2 0x1D78 JUMP JUMPDEST PUSH2 0xDC6 JUMP JUMPDEST DUP5 JUMPDEST PUSH1 0x2 SIGNEXTEND DUP2 MSTORE PUSH1 0x20 ADD PUSH32 0x0 PUSH1 0x1 PUSH1 0x1 PUSH1 0xA0 SHL SUB AND PUSH32 0x0 PUSH1 0x1 PUSH1 0x1 PUSH1 0xA0 SHL SUB AND LT PUSH2 0xE35 JUMPI PUSH2 0xE30 DUP6 PUSH2 0x1D78 JUMP JUMPDEST PUSH2 0xE37 JUMP JUMPDEST DUP4 JUMPDEST PUSH1 0x2 SIGNEXTEND DUP2 MSTORE PUSH1 0x20 ADD PUSH32 0x0 PUSH1 0x1 PUSH1 0x1 PUSH1 0xA0 SHL SUB AND PUSH32 0x0 PUSH1 0x1 PUSH1 0x1 PUSH1 0xA0 SHL SUB AND LT PUSH2 0xE9E JUMPI DUP7 PUSH2 0xEA0 JUMP JUMPDEST DUP8 JUMPDEST DUP2 MSTORE PUSH1 0x20 ADD PUSH32 0x0 PUSH1 0x1 PUSH1 0x1 PUSH1 0xA0 SHL SUB AND PUSH32 0x0 PUSH1 0x1 PUSH1 0x1 PUSH1 0xA0 SHL SUB AND LT PUSH2 0xF04 JUMPI DUP8 PUSH2 0xF06 JUMP JUMPDEST DUP7 JUMPDEST DUP2 MSTORE PUSH1 0x0 PUSH1 0x20 DUP3 ADD DUP2 SWAP1 MSTORE PUSH1 0x40 DUP3 ADD MSTORE ADDRESS PUSH1 0x60 DUP3 ADD MSTORE PUSH1 0x80 ADD PUSH2 0xF2B TIMESTAMP PUSH2 0x258 PUSH2 0x1D9A JUMP JUMPDEST DUP2 MSTORE POP SWAP1 POP PUSH1 0x0 DUP1 PUSH32 0x0 PUSH1 0x1 PUSH1 0x1 PUSH1 0xA0 SHL SUB AND PUSH4 0x88316456 DUP5 PUSH1 0x40 MLOAD DUP3 PUSH4 0xFFFFFFFF AND PUSH1 0xE0 SHL DUP2 MSTORE PUSH1 0x4 ADD PUSH2 0xF7F SWAP2 SWAP1 PUSH2 0x1DAD JUMP JUMPDEST PUSH1 0x80 PUSH1 0x40 MLOAD DUP1 DUP4 SUB DUP2 PUSH1 0x0 DUP8 GAS CALL ISZERO DUP1 ISZERO PUSH2 0xF9E JUMPI RETURNDATASIZE PUSH1 0x0 DUP1 RETURNDATACOPY RETURNDATASIZE PUSH1 0x0 REVERT JUMPDEST POP POP POP POP PUSH1 0x40 MLOAD RETURNDATASIZE PUSH1 0x1F NOT PUSH1 0x1F DUP3 ADD AND DUP3 ADD DUP1 PUSH1 0x40 MSTORE POP DUP2 ADD SWAP1 PUSH2 0xFC2 SWAP2 SWAP1 PUSH2 0x1E71 JUMP JUMPDEST POP POP PUSH1 0x2 DUP3 DUP2 SSTORE PUSH1 0x40 DUP1 MLOAD DUP10 DUP4 SIGNEXTEND DUP2 MSTORE SWAP2 DUP9 SWAP1 SIGNEXTEND PUSH1 0x20 DUP4 ADD MSTORE SWAP3 SWAP5 POP SWAP1 SWAP3 POP DUP4 SWAP2 PUSH32 0x7364CC1570217FC46FD7074A19B3B76CD55175B4E8BED0F878C88A3C47949E41 SWAP2 ADD PUSH1 0x40 MLOAD DUP1 SWAP2 SUB SWAP1 LOG2 POP POP POP POP POP PUSH2 0x6AE PUSH1 0x1 DUP1 SSTORE JUMP JUMPDEST PUSH2 0x1024 PUSH2 0x19DC JUMP JUMPDEST PUSH1 0x3 SLOAD PUSH1 0x1 PUSH1 0x38 SHL SWAP1 DIV PUSH1 0xFF AND ISZERO PUSH2 0x104E JUMPI PUSH1 0x40 MLOAD PUSH3 0x461BCD PUSH1 0xE5 SHL DUP2 MSTORE PUSH1 0x4 ADD PUSH2 0x45E SWAP1 PUSH2 0x1D0D JUMP JUMPDEST PUSH32 0x0 PUSH1 0x1 PUSH1 0x1 PUSH1 0xA0 SHL SUB AND DUP4 PUSH1 0x1 PUSH1 0x1 PUSH1 0xA0 SHL SUB AND EQ ISZERO DUP1 ISZERO PUSH2 0x10C2 JUMPI POP PUSH32 0x0 PUSH1 0x1 PUSH1 0x1 PUSH1 0xA0 SHL SUB AND DUP4 PUSH1 0x1 PUSH1 0x1 PUSH1 0xA0 SHL SUB AND EQ ISZERO JUMPDEST PUSH2 0x110E JUMPI PUSH1 0x40 MLOAD PUSH3 0x461BCD PUSH1 0xE5 SHL DUP2 MSTORE PUSH1 0x20 PUSH1 0x4 DUP3 ADD MSTORE PUSH1 0x1E PUSH1 0x24 DUP3 ADD MSTORE PUSH32 0x4C4D3A2043616E6E6F742072657363756520534F4F4E206F7220524254430000 PUSH1 0x44 DUP3 ADD MSTORE PUSH1 0x64 ADD PUSH2 0x45E JUMP JUMPDEST PUSH1 0x40 MLOAD PUSH4 0xA9059CBB PUSH1 0xE0 SHL DUP2 MSTORE PUSH1 0x1 PUSH1 0x1 PUSH1 0xA0 SHL SUB DUP3 DUP2 AND PUSH1 0x4 DUP4 ADD MSTORE PUSH1 0x24 DUP3 ADD DUP5 SWAP1 MSTORE DUP5 AND SWAP1 PUSH4 0xA9059CBB SWAP1 PUSH1 0x44 ADD PUSH1 0x20 PUSH1 0x40 MLOAD DUP1 DUP4 SUB DUP2 PUSH1 0x0 DUP8 GAS CALL ISZERO DUP1 ISZERO PUSH2 0x115D JUMPI RETURNDATASIZE PUSH1 0x0 DUP1 RETURNDATACOPY RETURNDATASIZE PUSH1 0x0 REVERT JUMPDEST POP POP POP POP PUSH1 0x40 MLOAD RETURNDATASIZE PUSH1 0x1F NOT PUSH1 0x1F DUP3 ADD AND DUP3 ADD DUP1 PUSH1 0x40 MSTORE POP DUP2 ADD SWAP1 PUSH2 0x1181 SWAP2 SWAP1 PUSH2 0x1D56 JUMP JUMPDEST POP POP POP POP JUMP JUMPDEST PUSH2 0x118F PUSH2 0x19DC JUMP JUMPDEST PUSH1 0x3 SLOAD PUSH1 0x1 PUSH1 0x38 SHL SWAP1 DIV PUSH1 0xFF AND ISZERO PUSH2 0x11B9 JUMPI PUSH1 0x40 MLOAD PUSH3 0x461BCD PUSH1 0xE5 SHL DUP2 MSTORE PUSH1 0x4 ADD PUSH2 0x45E SWAP1 PUSH2 0x1D0D JUMP JUMPDEST PUSH1 0x0 DUP2 PUSH1 0x2 SIGNEXTEND SGT DUP1 ISZERO PUSH2 0x11D0 JUMPI POP PUSH2 0x4E20 DUP2 PUSH1 0x2 SIGNEXTEND SLT JUMPDEST PUSH2 0x121C JUMPI PUSH1 0x40 MLOAD PUSH3 0x461BCD PUSH1 0xE5 SHL DUP2 MSTORE PUSH1 0x20 PUSH1 0x4 DUP3 ADD MSTORE PUSH1 0x19 PUSH1 0x24 DUP3 ADD MSTORE PUSH32 0x4C4D3A20496E76616C6964207469636B2064697374616E636500000000000000 PUSH1 0x44 DUP3 ADD MSTORE PUSH1 0x64 ADD PUSH2 0x45E JUMP JUMPDEST PUSH1 0x3 DUP1 SLOAD PUSH3 0xFFFFFF NOT AND PUSH3 0xFFFFFF DUP4 AND OR SWAP1 SSTORE PUSH1 0x40 MLOAD PUSH1 0x2 DUP3 SWAP1 SIGNEXTEND DUP2 MSTORE PUSH32 0x2ECA22CD7173AD1D8AB69B2B360C567B16F9F855EC693DA803CF941EA3A01B0 SWAP1 PUSH1 0x20 ADD PUSH2 0x7A2 JUMP JUMPDEST PUSH2 0x126B PUSH2 0x19DC JUMP JUMPDEST PUSH1 0x1 PUSH1 0x1 PUSH1 0xA0 SHL SUB DUP2 AND PUSH2 0x12D0 JUMPI PUSH1 0x40 MLOAD PUSH3 0x461BCD PUSH1 0xE5 SHL DUP2 MSTORE PUSH1 0x20 PUSH1 0x4 DUP3 ADD MSTORE PUSH1 0x26 PUSH1 0x24 DUP3 ADD MSTORE PUSH32 0x4F776E61626C653A206E6577206F776E657220697320746865207A65726F2061 PUSH1 0x44 DUP3 ADD MSTORE PUSH6 0x646472657373 PUSH1 0xD0 SHL PUSH1 0x64 DUP3 ADD MSTORE PUSH1 0x84 ADD PUSH2 0x45E JUMP JUMPDEST PUSH2 0x12D9 DUP2 PUSH2 0x1A36 JUMP JUMPDEST POP JUMP JUMPDEST PUSH2 0x12E4 PUSH2 0x19DC JUMP JUMPDEST PUSH1 0x3 SLOAD PUSH1 0x1 PUSH1 0x38 SHL SWAP1 DIV PUSH1 0xFF AND ISZERO PUSH2 0x1333 JUMPI PUSH1 0x40 MLOAD PUSH3 0x461BCD PUSH1 0xE5 SHL DUP2 MSTORE PUSH1 0x20 PUSH1 0x4 DUP3 ADD MSTORE PUSH1 0x12 PUSH1 0x24 DUP3 ADD MSTORE PUSH18 0x13134E88105B1C9958591E481B1BD8DAD959 PUSH1 0x72 SHL PUSH1 0x44 DUP3 ADD MSTORE PUSH1 0x64 ADD PUSH2 0x45E JUMP JUMPDEST PUSH1 0x3 DUP1 SLOAD PUSH8 0xFF00000000000000 NOT AND PUSH1 0x1 PUSH1 0x38 SHL OR SWAP1 SSTORE PUSH1 0x40 MLOAD PUSH32 0x54E3CA0D4BD17648CB29D34247CA3924B77E34154244F9ECA27217ED60D2F6F7 SWAP1 PUSH1 0x0 SWAP1 LOG1 JUMP JUMPDEST PUSH1 0x2 PUSH1 0x1 SLOAD SUB PUSH2 0x13C7 JUMPI PUSH1 0x40 MLOAD PUSH3 0x461BCD PUSH1 0xE5 SHL DUP2 MSTORE PUSH1 0x20 PUSH1 0x4 DUP3 ADD MSTORE PUSH1 0x1F PUSH1 0x24 DUP3 ADD MSTORE PUSH32 0x5265656E7472616E637947756172643A207265656E7472616E742063616C6C00 PUSH1 0x44 DUP3 ADD MSTORE PUSH1 0x64 ADD PUSH2 0x45E JUMP JUMPDEST PUSH1 0x2 PUSH1 0x1 SSTORE JUMP JUMPDEST PUSH1 0x40 DUP1 MLOAD PUSH1 0x80 DUP2 ADD DUP3 MSTORE PUSH1 0x2 SLOAD DUP2 MSTORE ADDRESS PUSH1 0x20 DUP3 ADD MSTORE PUSH1 0x1 PUSH1 0x1 PUSH1 0x80 SHL SUB DUP2 DUP4 ADD DUP2 SWAP1 MSTORE PUSH1 0x60 DUP3 ADD MSTORE SWAP1 MLOAD PUSH4 0xFC6F7865 PUSH1 0xE0 SHL DUP2 MSTORE PUSH1 0x0 SWAP2 DUP3 SWAP2 DUP3 SWAP1 DUP2 SWAP1 PUSH32 0x0 PUSH1 0x1 PUSH1 0x1 PUSH1 0xA0 SHL SUB AND SWAP1 PUSH4 0xFC6F7865 SWAP1 PUSH2 0x144A SWAP1 DUP7 SWAP1 PUSH1 0x4 ADD PUSH2 0x1EAD JUMP JUMPDEST PUSH1 0x40 DUP1 MLOAD DUP1 DUP4 SUB DUP2 PUSH1 0x0 DUP8 GAS CALL ISZERO DUP1 ISZERO PUSH2 0x1468 JUMPI RETURNDATASIZE PUSH1 0x0 DUP1 RETURNDATACOPY RETURNDATASIZE PUSH1 0x0 REVERT JUMPDEST POP POP POP POP PUSH1 0x40 MLOAD RETURNDATASIZE PUSH1 0x1F NOT PUSH1 0x1F DUP3 ADD AND DUP3 ADD DUP1 PUSH1 0x40 MSTORE POP DUP2 ADD SWAP1 PUSH2 0x148C SWAP2 SWAP1 PUSH2 0x1EF0 JUMP JUMPDEST SWAP2 POP SWAP2 POP PUSH32 0x0 PUSH1 0x1 PUSH1 0x1 PUSH1 0xA0 SHL SUB AND PUSH32 0x0 PUSH1 0x1 PUSH1 0x1 PUSH1 0xA0 SHL SUB AND LT ISZERO PUSH2 0x14F5 JUMPI DUP2 SWAP5 POP DUP1 SWAP4 POP PUSH2 0x14FC JUMP JUMPDEST DUP1 SWAP5 POP DUP2 SWAP4 POP JUMPDEST POP POP POP SWAP1 SWAP2 JUMP JUMPDEST PUSH1 0x40 DUP1 MLOAD PUSH1 0x2 DUP1 DUP3 MSTORE PUSH1 0x60 DUP3 ADD DUP4 MSTORE PUSH1 0x0 SWAP3 DUP4 SWAP3 SWAP2 SWAP1 PUSH1 0x20 DUP4 ADD SWAP1 DUP1 CALLDATASIZE DUP4 CALLDATACOPY ADD SWAP1 POP POP SWAP1 POP PUSH1 0x3 DUP1 SLOAD SWAP1 PUSH2 0x100 EXP SWAP1 DIV PUSH4 0xFFFFFFFF AND DUP2 PUSH1 0x0 DUP2 MLOAD DUP2 LT PUSH2 0x154C JUMPI PUSH2 0x154C PUSH2 0x1F2A JUMP JUMPDEST PUSH1 0x20 MUL PUSH1 0x20 ADD ADD SWAP1 PUSH4 0xFFFFFFFF AND SWAP1 DUP2 PUSH4 0xFFFFFFFF AND DUP2 MSTORE POP POP PUSH1 0x0 DUP2 PUSH1 0x1 DUP2 MLOAD DUP2 LT PUSH2 0x157B JUMPI PUSH2 0x157B PUSH2 0x1F2A JUMP JUMPDEST PUSH4 0xFFFFFFFF SWAP1 SWAP3 AND PUSH1 0x20 SWAP3 DUP4 MUL SWAP2 SWAP1 SWAP2 ADD SWAP1 SWAP2 ADD MSTORE PUSH1 0x40 MLOAD PUSH4 0x883BDBFD PUSH1 0xE0 SHL DUP2 MSTORE PUSH1 0x1 PUSH1 0x1 PUSH1 0xA0 SHL SUB PUSH32 0x0 AND SWAP1 PUSH4 0x883BDBFD SWAP1 PUSH2 0x15DC SWAP1 DUP5 SWAP1 PUSH1 0x4 ADD PUSH2 0x1F40 JUMP JUMPDEST PUSH1 0x0 PUSH1 0x40 MLOAD DUP1 DUP4 SUB DUP2 DUP7 GAS STATICCALL SWAP3 POP POP POP DUP1 ISZERO PUSH2 0x161A JUMPI POP PUSH1 0x40 MLOAD RETURNDATASIZE PUSH1 0x0 DUP3 RETURNDATACOPY PUSH1 0x1F RETURNDATASIZE SWAP1 DUP2 ADD PUSH1 0x1F NOT AND DUP3 ADD PUSH1 0x40 MSTORE PUSH2 0x1617 SWAP2 SWAP1 DUP2 ADD SWAP1 PUSH2 0x2053 JUMP JUMPDEST PUSH1 0x1 JUMPDEST PUSH2 0x1628 JUMPI PUSH3 0x7FFFFF SWAP2 POP POP SWAP1 JUMP JUMPDEST PUSH1 0x0 DUP3 PUSH1 0x0 DUP2 MLOAD DUP2 LT PUSH2 0x163D JUMPI PUSH2 0x163D PUSH2 0x1F2A JUMP JUMPDEST PUSH1 0x20 MUL PUSH1 0x20 ADD ADD MLOAD DUP4 PUSH1 0x1 DUP2 MLOAD DUP2 LT PUSH2 0x1658 JUMPI PUSH2 0x1658 PUSH2 0x1F2A JUMP JUMPDEST PUSH1 0x20 MUL PUSH1 0x20 ADD ADD MLOAD PUSH2 0x166A SWAP2 SWAP1 PUSH2 0x211F JUMP JUMPDEST PUSH1 0x3 SLOAD SWAP1 SWAP2 POP PUSH1 0x0 SWAP1 PUSH2 0x168A SWAP1 PUSH4 0x1000000 SWAP1 DIV PUSH4 0xFFFFFFFF AND DUP4 PUSH2 0x214C JUMP JUMPDEST SWAP7 SWAP6 POP POP POP POP POP POP JUMP JUMPDEST PUSH1 0x0 PUSH1 0x40 MLOAD DUP1 PUSH1 0xA0 ADD PUSH1 0x40 MSTORE DUP1 PUSH1 0x2 SLOAD DUP2 MSTORE PUSH1 0x20 ADD DUP6 PUSH1 0x1 PUSH1 0x1 PUSH1 0x80 SHL SUB AND DUP2 MSTORE PUSH1 0x20 ADD PUSH1 0x0 DUP2 MSTORE PUSH1 0x20 ADD PUSH1 0x0 DUP2 MSTORE PUSH1 0x20 ADD TIMESTAMP PUSH2 0x258 PUSH2 0x16D4 SWAP2 SWAP1 PUSH2 0x1D9A JUMP JUMPDEST SWAP1 MSTORE PUSH1 0x40 DUP1 MLOAD PUSH4 0x624E65F PUSH1 0xE1 SHL DUP2 MSTORE DUP3 MLOAD PUSH1 0x4 DUP3 ADD MSTORE PUSH1 0x20 DUP4 ADD MLOAD PUSH1 0x1 PUSH1 0x1 PUSH1 0x80 SHL SUB AND PUSH1 0x24 DUP3 ADD MSTORE SWAP1 DUP3 ADD MLOAD PUSH1 0x44 DUP3 ADD MSTORE PUSH1 0x60 DUP3 ADD MLOAD PUSH1 0x64 DUP3 ADD MSTORE PUSH1 0x80 DUP3 ADD MLOAD PUSH1 0x84 DUP3 ADD MSTORE SWAP1 SWAP2 POP PUSH1 0x0 SWAP1 DUP2 SWAP1 PUSH1 0x1 PUSH1 0x1 PUSH1 0xA0 SHL SUB PUSH32 0x0 AND SWAP1 PUSH4 0xC49CCBE SWAP1 PUSH1 0xA4 ADD PUSH1 0x40 DUP1 MLOAD DUP1 DUP4 SUB DUP2 PUSH1 0x0 DUP8 GAS CALL ISZERO DUP1 ISZERO PUSH2 0x1775 JUMPI RETURNDATASIZE PUSH1 0x0 DUP1 RETURNDATACOPY RETURNDATASIZE PUSH1 0x0 REVERT JUMPDEST POP POP POP POP PUSH1 0x40 MLOAD RETURNDATASIZE PUSH1 0x1F NOT PUSH1 0x1F DUP3 ADD AND DUP3 ADD DUP1 PUSH1 0x40 MSTORE POP DUP2 ADD SWAP1 PUSH2 0x1799 SWAP2 SWAP1 PUSH2 0x1EF0 JUMP JUMPDEST PUSH1 0x40 DUP1 MLOAD PUSH1 0x80 DUP2 ADD DUP3 MSTORE PUSH1 0x2 SLOAD DUP2 MSTORE ADDRESS PUSH1 0x20 DUP3 ADD MSTORE PUSH1 0x1 PUSH1 0x1 PUSH1 0x80 SHL SUB DUP2 DUP4 ADD DUP2 SWAP1 MSTORE PUSH1 0x60 DUP3 ADD MSTORE SWAP1 MLOAD PUSH4 0xFC6F7865 PUSH1 0xE0 SHL DUP2 MSTORE SWAP3 SWAP5 POP SWAP1 SWAP3 POP SWAP1 PUSH1 0x0 SWAP1 DUP2 SWAP1 PUSH32 0x0 PUSH1 0x1 PUSH1 0x1 PUSH1 0xA0 SHL SUB AND SWAP1 PUSH4 0xFC6F7865 SWAP1 PUSH2 0x1818 SWAP1 DUP7 SWAP1 PUSH1 0x4 ADD PUSH2 0x1EAD JUMP JUMPDEST PUSH1 0x40 DUP1 MLOAD DUP1 DUP4 SUB DUP2 PUSH1 0x0 DUP8 GAS CALL ISZERO DUP1 ISZERO PUSH2 0x1836 JUMPI RETURNDATASIZE PUSH1 0x0 DUP1 RETURNDATACOPY RETURNDATASIZE PUSH1 0x0 REVERT JUMPDEST POP POP POP POP PUSH1 0x40 MLOAD RETURNDATASIZE PUSH1 0x1F NOT PUSH1 0x1F DUP3 ADD AND DUP3 ADD DUP1 PUSH1 0x40 MSTORE POP DUP2 ADD SWAP1 PUSH2 0x185A SWAP2 SWAP1 PUSH2 0x1EF0 JUMP JUMPDEST SWAP1 SWAP3 POP SWAP1 POP PUSH2 0x1869 DUP3 DUP7 PUSH2 0x1D9A JUMP JUMPDEST SWAP5 POP PUSH2 0x1875 DUP2 DUP6 PUSH2 0x1D9A JUMP JUMPDEST SWAP4 POP PUSH1 0x0 PUSH1 0x40 MLOAD DUP1 PUSH1 0xC0 ADD PUSH1 0x40 MSTORE DUP1 PUSH1 0x2 SLOAD DUP2 MSTORE PUSH1 0x20 ADD DUP8 DUP2 MSTORE PUSH1 0x20 ADD DUP7 DUP2 MSTORE PUSH1 0x20 ADD PUSH1 0x0 DUP2 MSTORE PUSH1 0x20 ADD PUSH1 0x0 DUP2 MSTORE PUSH1 0x20 ADD TIMESTAMP PUSH2 0x258 PUSH2 0x18B4 SWAP2 SWAP1 PUSH2 0x1D9A JUMP JUMPDEST SWAP1 MSTORE PUSH1 0x40 DUP1 MLOAD PUSH4 0x219F5D17 PUSH1 0xE0 SHL DUP2 MSTORE DUP3 MLOAD PUSH1 0x4 DUP3 ADD MSTORE PUSH1 0x20 DUP4 ADD MLOAD PUSH1 0x24 DUP3 ADD MSTORE SWAP1 DUP3 ADD MLOAD PUSH1 0x44 DUP3 ADD MSTORE PUSH1 0x60 DUP3 ADD MLOAD PUSH1 0x64 DUP3 ADD MSTORE PUSH1 0x80 DUP3 ADD MLOAD PUSH1 0x84 DUP3 ADD MSTORE PUSH1 0xA0 DUP3 ADD MLOAD PUSH1 0xA4 DUP3 ADD MSTORE SWAP1 SWAP2 POP PUSH1 0x0 SWAP1 PUSH32 0x0 PUSH1 0x1 PUSH1 0x1 PUSH1 0xA0 SHL SUB AND SWAP1 PUSH4 0x219F5D17 SWAP1 PUSH1 0xC4 ADD PUSH1 0x60 PUSH1 0x40 MLOAD DUP1 DUP4 SUB DUP2 PUSH1 0x0 DUP8 GAS CALL ISZERO DUP1 ISZERO PUSH2 0x1955 JUMPI RETURNDATASIZE PUSH1 0x0 DUP1 RETURNDATACOPY RETURNDATASIZE PUSH1 0x0 REVERT JUMPDEST POP POP POP POP PUSH1 0x40 MLOAD RETURNDATASIZE PUSH1 0x1F NOT PUSH1 0x1F DUP3 ADD AND DUP3 ADD DUP1 PUSH1 0x40 MSTORE POP DUP2 ADD SWAP1 PUSH2 0x1979 SWAP2 SWAP1 PUSH2 0x2198 JUMP JUMPDEST POP POP PUSH1 0x2 DUP1 SLOAD PUSH1 0x40 DUP1 MLOAD DUP15 DUP5 SIGNEXTEND DUP2 MSTORE SWAP3 DUP14 SWAP1 SIGNEXTEND PUSH1 0x20 DUP5 ADD MSTORE PUSH1 0x1 PUSH1 0x1 PUSH1 0x80 SHL SUB DUP5 AND SWAP1 DUP4 ADD MSTORE SWAP2 SWAP3 POP PUSH32 0x831C80419255C1B7126D6668C6DDC25361B564EDBD74DF554AC3D049963A286A SWAP1 PUSH1 0x60 ADD PUSH1 0x40 MLOAD DUP1 SWAP2 SUB SWAP1 LOG2 POP POP POP POP POP POP POP POP POP POP POP JUMP JUMPDEST PUSH1 0x0 SLOAD PUSH1 0x1 PUSH1 0x1 PUSH1 0xA0 SHL SUB AND CALLER EQ PUSH2 0x5EC JUMPI PUSH1 0x40 MLOAD PUSH3 0x461BCD PUSH1 0xE5 SHL DUP2 MSTORE PUSH1 0x20 PUSH1 0x4 DUP3 ADD DUP2 SWAP1 MSTORE PUSH1 0x24 DUP3 ADD MSTORE PUSH32 0x4F776E61626C653A2063616C6C6572206973206E6F7420746865206F776E6572 PUSH1 0x44 DUP3 ADD MSTORE PUSH1 0x64 ADD PUSH2 0x45E JUMP JUMPDEST PUSH1 0x0 DUP1 SLOAD PUSH1 0x1 PUSH1 0x1 PUSH1 0xA0 SHL SUB DUP4 DUP2 AND PUSH1 0x1 PUSH1 0x1 PUSH1 0xA0 SHL SUB NOT DUP4 AND DUP2 OR DUP5 SSTORE PUSH1 0x40 MLOAD SWAP2 SWAP1 SWAP3 AND SWAP3 DUP4 SWAP2 PUSH32 0x8BE0079C531659141344CD1FD0A4F28419497F9722A3DAAFE3B4186F6B6457E0 SWAP2 SWAP1 LOG3 POP POP JUMP JUMPDEST PUSH1 0x1 PUSH1 0x1 PUSH1 0xA0 SHL SUB DUP2 AND DUP2 EQ PUSH2 0x12D9 JUMPI PUSH1 0x0 DUP1 REVERT JUMPDEST PUSH1 0x0 PUSH1 0x20 DUP3 DUP5 SUB SLT ISZERO PUSH2 0x1AAD JUMPI PUSH1 0x0 DUP1 REVERT JUMPDEST DUP2 CALLDATALOAD PUSH2 0x1AB8 DUP2 PUSH2 0x1A86 JUMP JUMPDEST SWAP4 SWAP3 POP POP POP JUMP JUMPDEST PUSH1 0x0 PUSH1 0x20 DUP3 DUP5 SUB SLT ISZERO PUSH2 0x1AD1 JUMPI PUSH1 0x0 DUP1 REVERT JUMPDEST DUP2 CALLDATALOAD PUSH4 0xFFFFFFFF DUP2 AND DUP2 EQ PUSH2 0x1AB8 JUMPI PUSH1 0x0 DUP1 REVERT JUMPDEST DUP1 PUSH1 0x2 SIGNEXTEND DUP2 EQ PUSH2 0x12D9 JUMPI PUSH1 0x0 DUP1 REVERT JUMPDEST PUSH1 0x0 DUP1 PUSH1 0x0 PUSH1 0x60 DUP5 DUP7 SUB SLT ISZERO PUSH2 0x1B09 JUMPI PUSH1 0x0 DUP1 REVERT JUMPDEST DUP4 CALLDATALOAD SWAP3 POP PUSH1 0x20 DUP5 ADD CALLDATALOAD SWAP2 POP PUSH1 0x40 DUP5 ADD CALLDATALOAD PUSH2 0x1B22 DUP2 PUSH2 0x1AE5 JUMP JUMPDEST DUP1 SWAP2 POP POP SWAP3 POP SWAP3 POP SWAP3 JUMP JUMPDEST PUSH1 0x0 DUP1 PUSH1 0x0 PUSH1 0x60 DUP5 DUP7 SUB SLT ISZERO PUSH2 0x1B42 JUMPI PUSH1 0x0 DUP1 REVERT JUMPDEST DUP4 CALLDATALOAD PUSH2 0x1B4D DUP2 PUSH2 0x1A86 JUMP JUMPDEST SWAP3 POP PUSH1 0x20 DUP5 ADD CALLDATALOAD SWAP2 POP PUSH1 0x40 DUP5 ADD CALLDATALOAD PUSH2 0x1B22 DUP2 PUSH2 0x1A86 JUMP JUMPDEST PUSH1 0x0 PUSH1 0x20 DUP3 DUP5 SUB SLT ISZERO PUSH2 0x1B76 JUMPI PUSH1 0x0 DUP1 REVERT JUMPDEST DUP2 CALLDATALOAD PUSH2 0x1AB8 DUP2 PUSH2 0x1AE5 JUMP JUMPDEST DUP1 MLOAD PUSH2 0x1B8C DUP2 PUSH2 0x1A86 JUMP JUMPDEST SWAP2 SWAP1 POP JUMP JUMPDEST DUP1 MLOAD PUSH3 0xFFFFFF DUP2 AND DUP2 EQ PUSH2 0x1B8C JUMPI PUSH1 0x0 DUP1 REVERT JUMPDEST DUP1 MLOAD PUSH2 0x1B8C DUP2 PUSH2 0x1AE5 JUMP JUMPDEST DUP1 MLOAD PUSH1 0x1 PUSH1 0x1 PUSH1 0x80 SHL SUB DUP2 AND DUP2 EQ PUSH2 0x1B8C JUMPI PUSH1 0x0 DUP1 REVERT JUMPDEST PUSH1 0x0 DUP1 PUSH1 0x0 DUP1 PUSH1 0x0 DUP1 PUSH1 0x0 DUP1 PUSH1 0x0 DUP1 PUSH1 0x0 DUP1 PUSH2 0x180 DUP14 DUP16 SUB SLT ISZERO PUSH2 0x1BE9 JUMPI PUSH1 0x0 DUP1 REVERT JUMPDEST DUP13 MLOAD PUSH12 0xFFFFFFFFFFFFFFFFFFFFFFFF DUP2 AND DUP2 EQ PUSH2 0x1C05 JUMPI PUSH1 0x0 DUP1 REVERT JUMPDEST SWAP12 POP PUSH2 0x1C13 PUSH1 0x20 DUP15 ADD PUSH2 0x1B81 JUMP JUMPDEST SWAP11 POP PUSH2 0x1C21 PUSH1 0x40 DUP15 ADD PUSH2 0x1B81 JUMP JUMPDEST SWAP10 POP PUSH2 0x1C2F PUSH1 0x60 DUP15 ADD PUSH2 0x1B81 JUMP JUMPDEST SWAP9 POP PUSH2 0x1C3D PUSH1 0x80 DUP15 ADD PUSH2 0x1B91 JUMP JUMPDEST SWAP8 POP PUSH2 0x1C4B PUSH1 0xA0 DUP15 ADD PUSH2 0x1BA4 JUMP JUMPDEST SWAP7 POP PUSH2 0x1C59 PUSH1 0xC0 DUP15 ADD PUSH2 0x1BA4 JUMP JUMPDEST SWAP6 POP PUSH2 0x1C67 PUSH1 0xE0 DUP15 ADD PUSH2 0x1BAF JUMP JUMPDEST SWAP5 POP PUSH2 0x100 DUP14 ADD MLOAD SWAP4 POP PUSH2 0x120 DUP14 ADD MLOAD SWAP3 POP PUSH2 0x1C86 PUSH2 0x140 DUP15 ADD PUSH2 0x1BAF JUMP JUMPDEST SWAP2 POP PUSH2 0x1C95 PUSH2 0x160 DUP15 ADD PUSH2 0x1BAF JUMP JUMPDEST SWAP1 POP SWAP3 SWAP6 SWAP9 SWAP12 POP SWAP3 SWAP6 SWAP9 SWAP12 POP SWAP3 SWAP6 SWAP9 SWAP12 JUMP JUMPDEST PUSH4 0x4E487B71 PUSH1 0xE0 SHL PUSH1 0x0 MSTORE PUSH1 0x11 PUSH1 0x4 MSTORE PUSH1 0x24 PUSH1 0x0 REVERT JUMPDEST PUSH1 0x2 DUP3 DUP2 SIGNEXTEND SWAP1 DUP3 SWAP1 SIGNEXTEND SUB PUSH3 0x7FFFFF NOT DUP2 SLT PUSH3 0x7FFFFF DUP3 SGT OR ISZERO PUSH2 0x1CE2 JUMPI PUSH2 0x1CE2 PUSH2 0x1CA7 JUMP JUMPDEST SWAP3 SWAP2 POP POP JUMP JUMPDEST PUSH1 0x2 DUP2 DUP2 SIGNEXTEND SWAP1 DUP4 SWAP1 SIGNEXTEND ADD PUSH3 0x7FFFFF DUP2 SGT PUSH3 0x7FFFFF NOT DUP3 SLT OR ISZERO PUSH2 0x1CE2 JUMPI PUSH2 0x1CE2 PUSH2 0x1CA7 JUMP JUMPDEST PUSH1 0x20 DUP1 DUP3 MSTORE PUSH1 0x16 SWAP1 DUP3 ADD MSTORE PUSH22 0x13134E8810DBDB9D1C9858DD081A5CC81B1BD8DAD959 PUSH1 0x52 SHL PUSH1 0x40 DUP3 ADD MSTORE PUSH1 0x60 ADD SWAP1 JUMP JUMPDEST PUSH1 0x0 PUSH1 0x20 DUP3 DUP5 SUB SLT ISZERO PUSH2 0x1D4F JUMPI PUSH1 0x0 DUP1 REVERT JUMPDEST POP MLOAD SWAP2 SWAP1 POP JUMP JUMPDEST PUSH1 0x0 PUSH1 0x20 DUP3 DUP5 SUB SLT ISZERO PUSH2 0x1D68 JUMPI PUSH1 0x0 DUP1 REVERT JUMPDEST DUP2 MLOAD DUP1 ISZERO ISZERO DUP2 EQ PUSH2 0x1AB8 JUMPI PUSH1 0x0 DUP1 REVERT JUMPDEST PUSH1 0x0 DUP2 PUSH1 0x2 SIGNEXTEND PUSH3 0x7FFFFF NOT DUP2 SUB PUSH2 0x1D91 JUMPI PUSH2 0x1D91 PUSH2 0x1CA7 JUMP JUMPDEST PUSH1 0x0 SUB SWAP3 SWAP2 POP POP JUMP JUMPDEST DUP1 DUP3 ADD DUP1 DUP3 GT ISZERO PUSH2 0x1CE2 JUMPI PUSH2 0x1CE2 PUSH2 0x1CA7 JUMP JUMPDEST DUP2 MLOAD PUSH1 0x1 PUSH1 0x1 PUSH1 0xA0 SHL SUB AND DUP2 MSTORE PUSH2 0x160 DUP2 ADD PUSH1 0x20 DUP4 ADD MLOAD PUSH2 0x1DD9 PUSH1 0x20 DUP5 ADD DUP3 PUSH1 0x1 PUSH1 0x1 PUSH1 0xA0 SHL SUB AND SWAP1 MSTORE JUMP JUMPDEST POP PUSH1 0x40 DUP4 ADD MLOAD PUSH2 0x1DF0 PUSH1 0x40 DUP5 ADD DUP3 PUSH3 0xFFFFFF AND SWAP1 MSTORE JUMP JUMPDEST POP PUSH1 0x60 DUP4 ADD MLOAD PUSH2 0x1E05 PUSH1 0x60 DUP5 ADD DUP3 PUSH1 0x2 SIGNEXTEND SWAP1 MSTORE JUMP JUMPDEST POP PUSH1 0x80 DUP4 ADD MLOAD PUSH2 0x1E1A PUSH1 0x80 DUP5 ADD DUP3 PUSH1 0x2 SIGNEXTEND SWAP1 MSTORE JUMP JUMPDEST POP PUSH1 0xA0 DUP4 ADD MLOAD PUSH1 0xA0 DUP4 ADD MSTORE PUSH1 0xC0 DUP4 ADD MLOAD PUSH1 0xC0 DUP4 ADD MSTORE PUSH1 0xE0 DUP4 ADD MLOAD PUSH1 0xE0 DUP4 ADD MSTORE PUSH2 0x100 DUP1 DUP5 ADD MLOAD DUP2 DUP5 ADD MSTORE POP PUSH2 0x120 DUP1 DUP5 ADD MLOAD PUSH2 0x1E60 DUP3 DUP6 ADD DUP3 PUSH1 0x1 PUSH1 0x1 PUSH1 0xA0 SHL SUB AND SWAP1 MSTORE JUMP JUMPDEST POP POP PUSH2 0x140 SWAP3 DUP4 ADD MLOAD SWAP2 SWAP1 SWAP3 ADD MSTORE SWAP1 JUMP JUMPDEST PUSH1 0x0 DUP1 PUSH1 0x0 DUP1 PUSH1 0x80 DUP6 DUP8 SUB SLT ISZERO PUSH2 0x1E87 JUMPI PUSH1 0x0 DUP1 REVERT JUMPDEST DUP5 MLOAD SWAP4 POP PUSH2 0x1E97 PUSH1 0x20 DUP7 ADD PUSH2 0x1BAF JUMP JUMPDEST PUSH1 0x40 DUP7 ADD MLOAD PUSH1 0x60 SWAP1 SWAP7 ADD MLOAD SWAP5 SWAP8 SWAP1 SWAP7 POP SWAP3 POP POP POP JUMP JUMPDEST DUP2 MLOAD DUP2 MSTORE PUSH1 0x20 DUP1 DUP4 ADD MLOAD PUSH1 0x1 PUSH1 0x1 PUSH1 0xA0 SHL SUB AND SWAP1 DUP3 ADD MSTORE PUSH1 0x40 DUP1 DUP4 ADD MLOAD PUSH1 0x1 PUSH1 0x1 PUSH1 0x80 SHL SUB SWAP1 DUP2 AND SWAP2 DUP4 ADD SWAP2 SWAP1 SWAP2 MSTORE PUSH1 0x60 SWAP3 DUP4 ADD MLOAD AND SWAP2 DUP2 ADD SWAP2 SWAP1 SWAP2 MSTORE PUSH1 0x80 ADD SWAP1 JUMP JUMPDEST PUSH1 0x0 DUP1 PUSH1 0x40 DUP4 DUP6 SUB SLT ISZERO PUSH2 0x1F03 JUMPI PUSH1 0x0 DUP1 REVERT JUMPDEST POP POP DUP1 MLOAD PUSH1 0x20 SWAP1 SWAP2 ADD MLOAD SWAP1 SWAP3 SWAP1 SWAP2 POP JUMP JUMPDEST PUSH4 0x4E487B71 PUSH1 0xE0 SHL PUSH1 0x0 MSTORE PUSH1 0x41 PUSH1 0x4 MSTORE PUSH1 0x24 PUSH1 0x0 REVERT JUMPDEST PUSH4 0x4E487B71 PUSH1 0xE0 SHL PUSH1 0x0 MSTORE PUSH1 0x32 PUSH1 0x4 MSTORE PUSH1 0x24 PUSH1 0x0 REVERT JUMPDEST PUSH1 0x20 DUP1 DUP3 MSTORE DUP3 MLOAD DUP3 DUP3 ADD DUP2 SWAP1 MSTORE PUSH1 0x0 SWAP2 SWAP1 DUP5 DUP3 ADD SWAP1 PUSH1 0x40 DUP6 ADD SWAP1 DUP5 JUMPDEST DUP2 DUP2 LT ISZERO PUSH2 0x1F7E JUMPI DUP4 MLOAD PUSH4 0xFFFFFFFF AND DUP4 MSTORE SWAP3 DUP5 ADD SWAP3 SWAP2 DUP5 ADD SWAP2 PUSH1 0x1 ADD PUSH2 0x1F5C JUMP JUMPDEST POP SWAP1 SWAP7 SWAP6 POP POP POP POP POP POP JUMP JUMPDEST PUSH1 0x40 MLOAD PUSH1 0x1F DUP3 ADD PUSH1 0x1F NOT AND DUP2 ADD PUSH8 0xFFFFFFFFFFFFFFFF DUP2 GT DUP3 DUP3 LT OR ISZERO PUSH2 0x1FB3 JUMPI PUSH2 0x1FB3 PUSH2 0x1F14 JUMP JUMPDEST PUSH1 0x40 MSTORE SWAP2 SWAP1 POP JUMP JUMPDEST PUSH1 0x0 PUSH8 0xFFFFFFFFFFFFFFFF DUP3 GT ISZERO PUSH2 0x1FD5 JUMPI PUSH2 0x1FD5 PUSH2 0x1F14 JUMP JUMPDEST POP PUSH1 0x5 SHL PUSH1 0x20 ADD SWAP1 JUMP JUMPDEST PUSH1 0x0 DUP3 PUSH1 0x1F DUP4 ADD SLT PUSH2 0x1FF0 JUMPI PUSH1 0x0 DUP1 REVERT JUMPDEST DUP2 MLOAD PUSH1 0x20 PUSH2 0x2005 PUSH2 0x2000 DUP4 PUSH2 0x1FBB JUMP JUMPDEST PUSH2 0x1F8A JUMP JUMPDEST DUP3 DUP2 MSTORE PUSH1 0x5 SWAP3 SWAP1 SWAP3 SHL DUP5 ADD DUP2 ADD SWAP2 DUP2 DUP2 ADD SWAP1 DUP7 DUP5 GT ISZERO PUSH2 0x2024 JUMPI PUSH1 0x0 DUP1 REVERT JUMPDEST DUP3 DUP7 ADD JUMPDEST DUP5 DUP2 LT ISZERO PUSH2 0x2048 JUMPI DUP1 MLOAD PUSH2 0x203B DUP2 PUSH2 0x1A86 JUMP JUMPDEST DUP4 MSTORE SWAP2 DUP4 ADD SWAP2 DUP4 ADD PUSH2 0x2028 JUMP JUMPDEST POP SWAP7 SWAP6 POP POP POP POP POP POP JUMP JUMPDEST PUSH1 0x0 DUP1 PUSH1 0x40 DUP4 DUP6 SUB SLT ISZERO PUSH2 0x2066 JUMPI PUSH1 0x0 DUP1 REVERT JUMPDEST DUP3 MLOAD PUSH8 0xFFFFFFFFFFFFFFFF DUP1 DUP3 GT ISZERO PUSH2 0x207E JUMPI PUSH1 0x0 DUP1 REVERT JUMPDEST DUP2 DUP6 ADD SWAP2 POP DUP6 PUSH1 0x1F DUP4 ADD SLT PUSH2 0x2092 JUMPI PUSH1 0x0 DUP1 REVERT JUMPDEST DUP2 MLOAD PUSH1 0x20 PUSH2 0x20A2 PUSH2 0x2000 DUP4 PUSH2 0x1FBB JUMP JUMPDEST DUP3 DUP2 MSTORE PUSH1 0x5 SWAP3 SWAP1 SWAP3 SHL DUP5 ADD DUP2 ADD SWAP2 DUP2 DUP2 ADD SWAP1 DUP10 DUP5 GT ISZERO PUSH2 0x20C1 JUMPI PUSH1 0x0 DUP1 REVERT JUMPDEST SWAP5 DUP3 ADD SWAP5 JUMPDEST DUP4 DUP7 LT ISZERO PUSH2 0x20EF JUMPI DUP6 MLOAD DUP1 PUSH1 0x6 SIGNEXTEND DUP2 EQ PUSH2 0x20E0 JUMPI PUSH1 0x0 DUP1 DUP2 REVERT JUMPDEST DUP3 MSTORE SWAP5 DUP3 ADD SWAP5 SWAP1 DUP3 ADD SWAP1 PUSH2 0x20C6 JUMP JUMPDEST SWAP2 DUP9 ADD MLOAD SWAP2 SWAP7 POP SWAP1 SWAP4 POP POP POP DUP1 DUP3 GT ISZERO PUSH2 0x2108 JUMPI PUSH1 0x0 DUP1 REVERT JUMPDEST POP PUSH2 0x2115 DUP6 DUP3 DUP7 ADD PUSH2 0x1FDF JUMP JUMPDEST SWAP2 POP POP SWAP3 POP SWAP3 SWAP1 POP JUMP JUMPDEST PUSH1 0x6 DUP3 DUP2 SIGNEXTEND SWAP1 DUP3 SWAP1 SIGNEXTEND SUB PUSH7 0x7FFFFFFFFFFFFF NOT DUP2 SLT PUSH7 0x7FFFFFFFFFFFFF DUP3 SGT OR ISZERO PUSH2 0x1CE2 JUMPI PUSH2 0x1CE2 PUSH2 0x1CA7 JUMP JUMPDEST PUSH1 0x0 DUP2 PUSH1 0x6 SIGNEXTEND DUP4 PUSH1 0x6 SIGNEXTEND DUP1 PUSH2 0x2171 JUMPI PUSH4 0x4E487B71 PUSH1 0xE0 SHL PUSH1 0x0 MSTORE PUSH1 0x12 PUSH1 0x4 MSTORE PUSH1 0x24 PUSH1 0x0 REVERT JUMPDEST PUSH7 0x7FFFFFFFFFFFFF NOT DUP3 EQ PUSH1 0x0 NOT DUP3 EQ AND ISZERO PUSH2 0x218F JUMPI PUSH2 0x218F PUSH2 0x1CA7 JUMP JUMPDEST SWAP1 SDIV SWAP4 SWAP3 POP POP POP JUMP JUMPDEST PUSH1 0x0 DUP1 PUSH1 0x0 PUSH1 0x60 DUP5 DUP7 SUB SLT ISZERO PUSH2 0x21AD JUMPI PUSH1 0x0 DUP1 REVERT JUMPDEST PUSH2 0x21B6 DUP5 PUSH2 0x1BAF JUMP JUMPDEST SWAP3 POP PUSH1 0x20 DUP5 ADD MLOAD SWAP2 POP PUSH1 0x40 DUP5 ADD MLOAD SWAP1 POP SWAP3 POP SWAP3 POP SWAP3 JUMP INVALID LOG2 PUSH5 0x6970667358 0x22 SLT KECCAK256 PUSH22 0x2E410D996C1DDAFF1F9C5D60C1DF916C2459AFF8B809 MSTORE 0xB9 0xDC DUP15 SWAP12 DUP10 0x25 SWAP5 0x2B PUSH5 0x736F6C6343 STOP ADDMOD GT STOP CALLER "},"methodIdentifiers":{"POOL_FEE()":"dd1b9c4a","initializePosition(uint256,uint256,int24)":"a51c8e2f","isLocked()":"a4e2d634","lock()":"f83d08ba","owner()":"8da5cb5b","positionManager()":"791b98bc","positionTokenId()":"ceefe5d1","rbtcToken()":"8e4704ad","rebalancePosition()":"4b8f3c89","renounceOwnership()":"715018a6","rescueRBTC(address)":"7872bf5f","rescueTokens(address,uint256,address)":"b37fd190","soonToken()":"023e66e0","sushiPoolOracle()":"c3c68747","tickDistance()":"48626a8c","transferOwnership(address)":"f2fde38b","twapIntervalSeconds()":"781bbc2c","updateTickDistance(int24)":"d814e214","updateTwapInterval(uint32)":"a500775e"}}}}}