{
  "_format": "hh-sol-artifact-1",
  "contractName": "SOONAirdrop",
  "sourceName": "contracts/SOONAirdrop.sol",
  "abi": [
    {
      "inputs": [
        {
          "internalType": "bytes32",
          "name": "_root",
          "type": "bytes32"
        },
        {
          "internalType": "address",
          "name": "_soonTokenAddress",
          "type": "address"
        },
        {
          "internalType": "uint256",
          "name": "_claimPeriodDays",
          "type": "uint256"
        }
      ],
      "stateMutability": "nonpayable",
      "type": "constructor"
    },
    {
      "anonymous": false,
      "inputs": [
        {
          "indexed": false,
          "internalType": "uint256",
          "name": "deadline",
          "type": "uint256"
        }
      ],
      "name": "ClaimDeadlineSet",
      "type": "event"
    },
    {
      "anonymous": false,
      "inputs": [
        {
          "indexed": true,
          "internalType": "address",
          "name": "recipient",
          "type": "address"
        },
        {
          "indexed": false,
          "internalType": "uint256",
          "name": "amount",
          "type": "uint256"
        }
      ],
      "name": "Claimed",
      "type": "event"
    },
    {
      "anonymous": false,
      "inputs": [
        {
          "indexed": false,
          "internalType": "bytes32",
          "name": "newRoot",
          "type": "bytes32"
        }
      ],
      "name": "MerkleRootUpdated",
      "type": "event"
    },
    {
      "anonymous": false,
      "inputs": [
        {
          "indexed": true,
          "internalType": "address",
          "name": "previousOwner",
          "type": "address"
        },
        {
          "indexed": true,
          "internalType": "address",
          "name": "newOwner",
          "type": "address"
        }
      ],
      "name": "OwnershipTransferred",
      "type": "event"
    },
    {
      "anonymous": false,
      "inputs": [
        {
          "indexed": true,
          "internalType": "address",
          "name": "recipient",
          "type": "address"
        },
        {
          "indexed": false,
          "internalType": "uint256",
          "name": "amount",
          "type": "uint256"
        }
      ],
      "name": "UnclaimedTokensRecovered",
      "type": "event"
    },
    {
      "inputs": [
        {
          "internalType": "uint256",
          "name": "amount",
          "type": "uint256"
        },
        {
          "internalType": "bytes32[]",
          "name": "proof",
          "type": "bytes32[]"
        }
      ],
      "name": "claim",
      "outputs": [],
      "stateMutability": "nonpayable",
      "type": "function"
    },
    {
      "inputs": [],
      "name": "claimDeadline",
      "outputs": [
        {
          "internalType": "uint256",
          "name": "",
          "type": "uint256"
        }
      ],
      "stateMutability": "view",
      "type": "function"
    },
    {
      "inputs": [
        {
          "internalType": "address",
          "name": "",
          "type": "address"
        }
      ],
      "name": "claimed",
      "outputs": [
        {
          "internalType": "bool",
          "name": "",
          "type": "bool"
        }
      ],
      "stateMutability": "view",
      "type": "function"
    },
    {
      "inputs": [
        {
          "internalType": "uint256",
          "name": "newClaimDeadline",
          "type": "uint256"
        }
      ],
      "name": "extendClaimDeadline",
      "outputs": [],
      "stateMutability": "nonpayable",
      "type": "function"
    },
    {
      "inputs": [],
      "name": "merkleRoot",
      "outputs": [
        {
          "internalType": "bytes32",
          "name": "",
          "type": "bytes32"
        }
      ],
      "stateMutability": "view",
      "type": "function"
    },
    {
      "inputs": [],
      "name": "owner",
      "outputs": [
        {
          "internalType": "address",
          "name": "",
          "type": "address"
        }
      ],
      "stateMutability": "view",
      "type": "function"
    },
    {
      "inputs": [
        {
          "internalType": "address",
          "name": "recipient",
          "type": "address"
        }
      ],
      "name": "recoverUnclaimedTokens",
      "outputs": [],
      "stateMutability": "nonpayable",
      "type": "function"
    },
    {
      "inputs": [],
      "name": "renounceOwnership",
      "outputs": [],
      "stateMutability": "nonpayable",
      "type": "function"
    },
    {
      "inputs": [],
      "name": "soonToken",
      "outputs": [
        {
          "internalType": "contract IERC20",
          "name": "",
          "type": "address"
        }
      ],
      "stateMutability": "view",
      "type": "function"
    },
    {
      "inputs": [],
      "name": "totalClaimedAmount",
      "outputs": [
        {
          "internalType": "uint256",
          "name": "",
          "type": "uint256"
        }
      ],
      "stateMutability": "view",
      "type": "function"
    },
    {
      "inputs": [
        {
          "internalType": "address",
          "name": "newOwner",
          "type": "address"
        }
      ],
      "name": "transferOwnership",
      "outputs": [],
      "stateMutability": "nonpayable",
      "type": "function"
    },
    {
      "inputs": [
        {
          "internalType": "bytes32",
          "name": "_newRoot",
          "type": "bytes32"
        }
      ],
      "name": "updateMerkleRoot",
      "outputs": [],
      "stateMutability": "nonpayable",
      "type": "function"
    }
  ],
  "bytecode": "0x60a06040523480156200001157600080fd5b506040516200101b3803806200101b833981016040819052620000349162000207565b6200003f33620001b7565b6001600160a01b038216620000ae5760405162461bcd60e51b815260206004820152602a60248201527f41697264726f703a20534f4f4e20746f6b656e20616464726573732063616e6e6044820152696f74206265207a65726f60b01b60648201526084015b60405180910390fd5b600081116200010f5760405162461bcd60e51b815260206004820152602660248201527f41697264726f703a20436c61696d20706572696f64206d75737420626520706f60448201526573697469766560d01b6064820152608401620000a5565b60018390556001600160a01b03821660805262000130816201518062000265565b6200013c904262000285565b6004556040518381527f90004c04698bc3322499a575ed3752dd4abf33e0a7294c06a787a0fe01bea9419060200160405180910390a17f321c1493b9d189f9c80685bc77d474ddc68fb342ec5366dbc21c25eb941762ab600454604051620001a691815260200190565b60405180910390a15050506200029b565b600080546001600160a01b038381166001600160a01b0319831681178455604051919092169283917f8be0079c531659141344cd1fd0a4f28419497f9722a3daafe3b4186f6b6457e09190a35050565b6000806000606084860312156200021d57600080fd5b835160208501519093506001600160a01b03811681146200023d57600080fd5b80925050604084015190509250925092565b634e487b7160e01b600052601160045260246000fd5b80820281158282048414176200027f576200027f6200024f565b92915050565b808201808211156200027f576200027f6200024f565b608051610d49620002d26000396000818160be015281816103ff01528181610506015281816106e801526107890152610d496000f3fe608060405234801561001057600080fd5b50600436106100b45760003560e01c8063715018a611610071578063715018a6146101585780637abbc150146101605780638da5cb5b146101735780639661cb0d14610184578063c884ef831461018d578063f2fde38b146101c057600080fd5b8063023e66e0146100b95780632eb4a7ab146100fd5780632f52ebb7146101145780633a3b4766146101295780633ba86c441461013c5780634783f0ef14610145575b600080fd5b6100e07f000000000000000000000000000000000000000000000000000000000000000081565b6040516001600160a01b0390911681526020015b60405180910390f35b61010660015481565b6040519081526020016100f4565b610127610122366004610bbf565b6101d3565b005b610127610137366004610c3e565b610603565b61010660045481565b610127610153366004610c67565b610894565b61012761094f565b61012761016e366004610c67565b610963565b6000546001600160a01b03166100e0565b61010660035481565b6101b061019b366004610c3e565b60026020526000908152604090205460ff1681565b60405190151581526020016100f4565b6101276101ce366004610c3e565b610a05565b60045442111561022a5760405162461bcd60e51b815260206004820152601f60248201527f41697264726f703a20436c61696d20706572696f642068617320656e6465640060448201526064015b60405180910390fd5b3360009081526002602052604090205460ff161561028a5760405162461bcd60e51b815260206004820152601f60248201527f41697264726f703a20546f6b656e7320616c726561647920636c61696d6564006044820152606401610221565b600083116102e95760405162461bcd60e51b815260206004820152602660248201527f41697264726f703a20436c61696d20616d6f756e74206d75737420626520706f60448201526573697469766560d01b6064820152608401610221565b6040516bffffffffffffffffffffffff193360601b1660208201526034810184905260009060540160405160208183030381529060405280519060200120905061036a838380806020026020016040519081016040528093929190818152602001838360200280828437600092019190915250506001549150849050610a7e565b6103b65760405162461bcd60e51b815260206004820152601d60248201527f41697264726f703a20496e76616c6964204d65726b6c652070726f6f660000006044820152606401610221565b336000908152600260205260408120805460ff19166001179055600380548692906103e2908490610c96565b90915550506040516370a0823160e01b81523060048201526000907f00000000000000000000000000000000000000000000000000000000000000006001600160a01b0316906370a0823190602401602060405180830381865afa15801561044e573d6000803e3d6000fd5b505050506040513d601f19601f820116820180604052508101906104729190610ca9565b9050848110156104ea5760405162461bcd60e51b815260206004820152603760248201527f41697264726f703a20496e73756666696369656e7420746f6b656e7320696e2060448201527f636f6e747261637420666f72207468697320636c61696d0000000000000000006064820152608401610221565b60405163a9059cbb60e01b8152336004820152602481018690527f00000000000000000000000000000000000000000000000000000000000000006001600160a01b03169063a9059cbb906044016020604051808303816000875af1158015610557573d6000803e3d6000fd5b505050506040513d601f19601f8201168201806040525081019061057b9190610cc2565b6105c75760405162461bcd60e51b815260206004820152601e60248201527f41697264726f703a20546f6b656e207472616e73666572206661696c656400006044820152606401610221565b60405185815233907fd8138f8a3f377c5259ca548e70e4c2de94f129f5a11036a15b69513cba2b426a9060200160405180910390a25050505050565b61060b610a94565b60045442116106685760405162461bcd60e51b815260206004820152602360248201527f41697264726f703a20436c61696d20706572696f64206e6f742079657420656e60448201526219195960ea1b6064820152608401610221565b6001600160a01b0381166106d05760405162461bcd60e51b815260206004820152602960248201527f41697264726f703a20526563697069656e742063616e6e6f74206265207a65726044820152686f206164647265737360b81b6064820152608401610221565b6040516370a0823160e01b81523060048201526000907f00000000000000000000000000000000000000000000000000000000000000006001600160a01b0316906370a0823190602401602060405180830381865afa158015610737573d6000803e3d6000fd5b505050506040513d601f19601f8201168201806040525081019061075b9190610ca9565b905080156108905760405163a9059cbb60e01b81526001600160a01b038381166004830152602482018390527f0000000000000000000000000000000000000000000000000000000000000000169063a9059cbb906044016020604051808303816000875af11580156107d2573d6000803e3d6000fd5b505050506040513d601f19601f820116820180604052508101906107f69190610cc2565b61084c5760405162461bcd60e51b815260206004820152602160248201527f41697264726f703a205265636f76657279207472616e73666572206661696c656044820152601960fa1b6064820152608401610221565b816001600160a01b03167f5348e96f228865459dfe9d1e35b571ad2125bbeeb5e1b5af98e4f82c3746ecb08260405161088791815260200190565b60405180910390a25b5050565b61089c610a94565b60045442106109135760405162461bcd60e51b815260206004820152603d60248201527f41697264726f703a2043616e6e6f742075706461746520726f6f74206166746560448201527f7220636c61696d20706572696f6420737461727473206f7220656e64730000006064820152608401610221565b60018190556040518181527f90004c04698bc3322499a575ed3752dd4abf33e0a7294c06a787a0fe01bea941906020015b60405180910390a150565b610957610a94565b6109616000610aee565b565b61096b610a94565b60045481116109d05760405162461bcd60e51b815260206004820152602b60248201527f41697264726f703a204e657720646561646c696e65206d75737420626520696e60448201526a207468652066757475726560a81b6064820152608401610221565b60048190556040518181527f321c1493b9d189f9c80685bc77d474ddc68fb342ec5366dbc21c25eb941762ab90602001610944565b610a0d610a94565b6001600160a01b038116610a725760405162461bcd60e51b815260206004820152602660248201527f4f776e61626c653a206e6577206f776e657220697320746865207a65726f206160448201526564647265737360d01b6064820152608401610221565b610a7b81610aee565b50565b600082610a8b8584610b3e565b14949350505050565b6000546001600160a01b031633146109615760405162461bcd60e51b815260206004820181905260248201527f4f776e61626c653a2063616c6c6572206973206e6f7420746865206f776e65726044820152606401610221565b600080546001600160a01b038381166001600160a01b0319831681178455604051919092169283917f8be0079c531659141344cd1fd0a4f28419497f9722a3daafe3b4186f6b6457e09190a35050565b600081815b8451811015610b8357610b6f82868381518110610b6257610b62610ce4565b6020026020010151610b8d565b915080610b7b81610cfa565b915050610b43565b5090505b92915050565b6000818310610ba9576000828152602084905260409020610bb8565b60008381526020839052604090205b9392505050565b600080600060408486031215610bd457600080fd5b83359250602084013567ffffffffffffffff80821115610bf357600080fd5b818601915086601f830112610c0757600080fd5b813581811115610c1657600080fd5b8760208260051b8501011115610c2b57600080fd5b6020830194508093505050509250925092565b600060208284031215610c5057600080fd5b81356001600160a01b0381168114610bb857600080fd5b600060208284031215610c7957600080fd5b5035919050565b634e487b7160e01b600052601160045260246000fd5b80820180821115610b8757610b87610c80565b600060208284031215610cbb57600080fd5b5051919050565b600060208284031215610cd457600080fd5b81518015158114610bb857600080fd5b634e487b7160e01b600052603260045260246000fd5b600060018201610d0c57610d0c610c80565b506001019056fea26469706673582212205269f06bcb042f12e948499426cf31f6be2797cdc1144218fc899ec86e3604b664736f6c63430008110033",
  "linkReferences": {},
  "deployedLinkReferences": {}
}