{
  "_format": "hh-sol-artifact-1",
  "contractName": "SOON",
  "sourceName": "contracts/SOON.sol",
  "abi": [
    {
      "inputs": [],
      "stateMutability": "nonpayable",
      "type": "constructor"
    },
    {
      "anonymous": false,
      "inputs": [
        {
          "indexed": true,
          "internalType": "address",
          "name": "owner",
          "type": "address"
        },
        {
          "indexed": true,
          "internalType": "address",
          "name": "spender",
          "type": "address"
        },
        {
          "indexed": false,
          "internalType": "uint256",
          "name": "value",
          "type": "uint256"
        }
      ],
      "name": "Approval",
      "type": "event"
    },
    {
      "anonymous": false,
      "inputs": [
        {
          "indexed": true,
          "internalType": "address",
          "name": "account",
          "type": "address"
        },
        {
          "indexed": false,
          "internalType": "bool",
          "name": "isExcluded",
          "type": "bool"
        }
      ],
      "name": "ExcludedFromFee",
      "type": "event"
    },
    {
      "anonymous": false,
      "inputs": [
        {
          "indexed": true,
          "internalType": "address",
          "name": "account",
          "type": "address"
        },
        {
          "indexed": false,
          "internalType": "bool",
          "name": "isExcluded",
          "type": "bool"
        }
      ],
      "name": "ExcludedFromReward",
      "type": "event"
    },
    {
      "anonymous": false,
      "inputs": [
        {
          "indexed": true,
          "internalType": "address",
          "name": "to",
          "type": "address"
        },
        {
          "indexed": false,
          "internalType": "uint256",
          "name": "amount",
          "type": "uint256"
        }
      ],
      "name": "LiquidityFeeSent",
      "type": "event"
    },
    {
      "anonymous": false,
      "inputs": [
        {
          "indexed": true,
          "internalType": "address",
          "name": "manager",
          "type": "address"
        }
      ],
      "name": "LiquidityManagerSet",
      "type": "event"
    },
    {
      "anonymous": false,
      "inputs": [
        {
          "indexed": false,
          "internalType": "uint256",
          "name": "minTokens",
          "type": "uint256"
        }
      ],
      "name": "MinTokensBeforeSwapUpdated",
      "type": "event"
    },
    {
      "anonymous": false,
      "inputs": [
        {
          "indexed": true,
          "internalType": "address",
          "name": "previousOwner",
          "type": "address"
        },
        {
          "indexed": true,
          "internalType": "address",
          "name": "newOwner",
          "type": "address"
        }
      ],
      "name": "OwnershipTransferred",
      "type": "event"
    },
    {
      "anonymous": false,
      "inputs": [
        {
          "indexed": false,
          "internalType": "uint256",
          "name": "newTaxRateBIPS",
          "type": "uint256"
        },
        {
          "indexed": false,
          "internalType": "uint256",
          "name": "newReflectionFeeBIPS",
          "type": "uint256"
        },
        {
          "indexed": false,
          "internalType": "uint256",
          "name": "newBurnFeeBIPS",
          "type": "uint256"
        },
        {
          "indexed": false,
          "internalType": "uint256",
          "name": "newLiquidityFeeBIPS",
          "type": "uint256"
        }
      ],
      "name": "TaxRateUpdated",
      "type": "event"
    },
    {
      "anonymous": false,
      "inputs": [
        {
          "indexed": true,
          "internalType": "address",
          "name": "from",
          "type": "address"
        },
        {
          "indexed": false,
          "internalType": "uint256",
          "name": "amount",
          "type": "uint256"
        }
      ],
      "name": "TokensBurned",
      "type": "event"
    },
    {
      "anonymous": false,
      "inputs": [
        {
          "indexed": true,
          "internalType": "address",
          "name": "from",
          "type": "address"
        },
        {
          "indexed": true,
          "internalType": "address",
          "name": "to",
          "type": "address"
        },
        {
          "indexed": false,
          "internalType": "uint256",
          "name": "value",
          "type": "uint256"
        }
      ],
      "name": "Transfer",
      "type": "event"
    },
    {
      "inputs": [],
      "name": "INITIAL_SUPPLY",
      "outputs": [
        {
          "internalType": "uint256",
          "name": "",
          "type": "uint256"
        }
      ],
      "stateMutability": "view",
      "type": "function"
    },
    {
      "inputs": [],
      "name": "MAX_TAX_RATE_BIPS",
      "outputs": [
        {
          "internalType": "uint256",
          "name": "",
          "type": "uint256"
        }
      ],
      "stateMutability": "view",
      "type": "function"
    },
    {
      "inputs": [],
      "name": "TOTAL_BIPS",
      "outputs": [
        {
          "internalType": "uint256",
          "name": "",
          "type": "uint256"
        }
      ],
      "stateMutability": "view",
      "type": "function"
    },
    {
      "inputs": [
        {
          "internalType": "address",
          "name": "owner",
          "type": "address"
        },
        {
          "internalType": "address",
          "name": "spender",
          "type": "address"
        }
      ],
      "name": "allowance",
      "outputs": [
        {
          "internalType": "uint256",
          "name": "",
          "type": "uint256"
        }
      ],
      "stateMutability": "view",
      "type": "function"
    },
    {
      "inputs": [
        {
          "internalType": "address",
          "name": "spender",
          "type": "address"
        },
        {
          "internalType": "uint256",
          "name": "amount",
          "type": "uint256"
        }
      ],
      "name": "approve",
      "outputs": [
        {
          "internalType": "bool",
          "name": "",
          "type": "bool"
        }
      ],
      "stateMutability": "nonpayable",
      "type": "function"
    },
    {
      "inputs": [
        {
          "internalType": "address",
          "name": "account",
          "type": "address"
        }
      ],
      "name": "balanceOf",
      "outputs": [
        {
          "internalType": "uint256",
          "name": "",
          "type": "uint256"
        }
      ],
      "stateMutability": "view",
      "type": "function"
    },
    {
      "inputs": [],
      "name": "burnAddress",
      "outputs": [
        {
          "internalType": "address",
          "name": "",
          "type": "address"
        }
      ],
      "stateMutability": "view",
      "type": "function"
    },
    {
      "inputs": [],
      "name": "burnFeeBIPS",
      "outputs": [
        {
          "internalType": "uint256",
          "name": "",
          "type": "uint256"
        }
      ],
      "stateMutability": "view",
      "type": "function"
    },
    {
      "inputs": [],
      "name": "decimals",
      "outputs": [
        {
          "internalType": "uint8",
          "name": "",
          "type": "uint8"
        }
      ],
      "stateMutability": "view",
      "type": "function"
    },
    {
      "inputs": [
        {
          "internalType": "address",
          "name": "spender",
          "type": "address"
        },
        {
          "internalType": "uint256",
          "name": "subtractedValue",
          "type": "uint256"
        }
      ],
      "name": "decreaseAllowance",
      "outputs": [
        {
          "internalType": "bool",
          "name": "",
          "type": "bool"
        }
      ],
      "stateMutability": "nonpayable",
      "type": "function"
    },
    {
      "inputs": [
        {
          "internalType": "address",
          "name": "account",
          "type": "address"
        },
        {
          "internalType": "bool",
          "name": "excluded",
          "type": "bool"
        }
      ],
      "name": "excludeFromFee",
      "outputs": [],
      "stateMutability": "nonpayable",
      "type": "function"
    },
    {
      "inputs": [
        {
          "internalType": "address",
          "name": "account",
          "type": "address"
        },
        {
          "internalType": "bool",
          "name": "excluded",
          "type": "bool"
        }
      ],
      "name": "excludeFromReward",
      "outputs": [],
      "stateMutability": "nonpayable",
      "type": "function"
    },
    {
      "inputs": [
        {
          "internalType": "address",
          "name": "spender",
          "type": "address"
        },
        {
          "internalType": "uint256",
          "name": "addedValue",
          "type": "uint256"
        }
      ],
      "name": "increaseAllowance",
      "outputs": [
        {
          "internalType": "bool",
          "name": "",
          "type": "bool"
        }
      ],
      "stateMutability": "nonpayable",
      "type": "function"
    },
    {
      "inputs": [],
      "name": "liquidityFeeBIPS",
      "outputs": [
        {
          "internalType": "uint256",
          "name": "",
          "type": "uint256"
        }
      ],
      "stateMutability": "view",
      "type": "function"
    },
    {
      "inputs": [],
      "name": "liquidityManagerAddress",
      "outputs": [
        {
          "internalType": "address",
          "name": "",
          "type": "address"
        }
      ],
      "stateMutability": "view",
      "type": "function"
    },
    {
      "inputs": [],
      "name": "name",
      "outputs": [
        {
          "internalType": "string",
          "name": "",
          "type": "string"
        }
      ],
      "stateMutability": "view",
      "type": "function"
    },
    {
      "inputs": [],
      "name": "owner",
      "outputs": [
        {
          "internalType": "address",
          "name": "",
          "type": "address"
        }
      ],
      "stateMutability": "view",
      "type": "function"
    },
    {
      "inputs": [],
      "name": "reflectionFeeBIPS",
      "outputs": [
        {
          "internalType": "uint256",
          "name": "",
          "type": "uint256"
        }
      ],
      "stateMutability": "view",
      "type": "function"
    },
    {
      "inputs": [],
      "name": "renounceOwnership",
      "outputs": [],
      "stateMutability": "nonpayable",
      "type": "function"
    },
    {
      "inputs": [
        {
          "internalType": "address",
          "name": "tokenAddress",
          "type": "address"
        },
        {
          "internalType": "address",
          "name": "to",
          "type": "address"
        },
        {
          "internalType": "uint256",
          "name": "amount",
          "type": "uint256"
        }
      ],
      "name": "rescueERC20",
      "outputs": [],
      "stateMutability": "nonpayable",
      "type": "function"
    },
    {
      "inputs": [
        {
          "internalType": "address payable",
          "name": "to",
          "type": "address"
        }
      ],
      "name": "rescueRBTC",
      "outputs": [],
      "stateMutability": "nonpayable",
      "type": "function"
    },
    {
      "inputs": [
        {
          "internalType": "address",
          "name": "_manager",
          "type": "address"
        }
      ],
      "name": "setLiquidityManager",
      "outputs": [],
      "stateMutability": "nonpayable",
      "type": "function"
    },
    {
      "inputs": [],
      "name": "symbol",
      "outputs": [
        {
          "internalType": "string",
          "name": "",
          "type": "string"
        }
      ],
      "stateMutability": "view",
      "type": "function"
    },
    {
      "inputs": [],
      "name": "taxRateBIPS",
      "outputs": [
        {
          "internalType": "uint256",
          "name": "",
          "type": "uint256"
        }
      ],
      "stateMutability": "view",
      "type": "function"
    },
    {
      "inputs": [],
      "name": "totalSupply",
      "outputs": [
        {
          "internalType": "uint256",
          "name": "",
          "type": "uint256"
        }
      ],
      "stateMutability": "view",
      "type": "function"
    },
    {
      "inputs": [
        {
          "internalType": "address",
          "name": "to",
          "type": "address"
        },
        {
          "internalType": "uint256",
          "name": "amount",
          "type": "uint256"
        }
      ],
      "name": "transfer",
      "outputs": [
        {
          "internalType": "bool",
          "name": "",
          "type": "bool"
        }
      ],
      "stateMutability": "nonpayable",
      "type": "function"
    },
    {
      "inputs": [
        {
          "internalType": "address",
          "name": "from",
          "type": "address"
        },
        {
          "internalType": "address",
          "name": "to",
          "type": "address"
        },
        {
          "internalType": "uint256",
          "name": "amount",
          "type": "uint256"
        }
      ],
      "name": "transferFrom",
      "outputs": [
        {
          "internalType": "bool",
          "name": "",
          "type": "bool"
        }
      ],
      "stateMutability": "nonpayable",
      "type": "function"
    },
    {
      "inputs": [
        {
          "internalType": "address",
          "name": "newOwner",
          "type": "address"
        }
      ],
      "name": "transferOwnership",
      "outputs": [],
      "stateMutability": "nonpayable",
      "type": "function"
    },
    {
      "inputs": [
        {
          "internalType": "uint256",
          "name": "newTaxRateBIPS",
          "type": "uint256"
        },
        {
          "internalType": "uint256",
          "name": "newReflectionFeeBIPS",
          "type": "uint256"
        },
        {
          "internalType": "uint256",
          "name": "newBurnFeeBIPS",
          "type": "uint256"
        },
        {
          "internalType": "uint256",
          "name": "newLiquidityFeeBIPS",
          "type": "uint256"
        }
      ],
      "name": "updateTaxSettings",
      "outputs": [],
      "stateMutability": "nonpayable",
      "type": "function"
    },
    {
      "stateMutability": "payable",
      "type": "receive"
    }
  ],
  "bytecode": "0x60a06040526102b260065561014d60075560c8600855609d60095561dead6080523480156200002d57600080fd5b5060408051808201825260048082526329a7a7a760e11b60208084018290528451808601909552918452908301529060036200006a83826200088c565b5060046200007982826200088c565b50505062000096620000906200019b60201b60201c565b6200019f565b6b166e49ae11d913d3de000000600d819055620000b6906000196200096e565b620000c4906000196200099b565b600e55620000df336b166e49ae11d913d3de000000620001f1565b620000ec336001620002b4565b620000f93360016200038a565b608051620001099060016200038a565b600654600954600854600754620001219190620009b1565b6200012d9190620009b1565b14620001955760405162461bcd60e51b815260206004820152602c60248201527f534f4f4e3a2054617820636f6d706f6e656e7473206d69736d6174636820746f60448201526b74616c20746178207261746560a01b60648201526084015b60405180910390fd5b62000a40565b3390565b600580546001600160a01b038381166001600160a01b0319831681179093556040519116919082907f8be0079c531659141344cd1fd0a4f28419497f9722a3daafe3b4186f6b6457e090600090a35050565b6001600160a01b038216620002495760405162461bcd60e51b815260206004820152601f60248201527f45524332303a206d696e7420746f20746865207a65726f20616464726573730060448201526064016200018c565b80600260008282546200025d9190620009b1565b90915550506001600160a01b038216600081815260208181526040808320805486019055518481527fddf252ad1be2c89b69c2b068fc378daa952ba7f163c4a11628f55a4df523b3ef910160405180910390a35050565b6001600160a01b0382166000908152600f602052604090205481151560ff9091161515036200032b5760405162461bcd60e51b815260206004820152602d60248201526000805160206200294283398151915260448201526c6564206665652073746174757360981b60648201526084016200018c565b6001600160a01b0382166000818152600f6020908152604091829020805460ff191685151590811790915591519182527f2d43abd87b27cee7b0aa8c6f7e0b4a3247b683262a83cbc2318b0df398a49aa9910160405180910390a25050565b6001600160a01b038216620003fc5760405162461bcd60e51b815260206004820152603160248201527f534f4f4e3a205a65726f20616464726573732063616e6e6f74206265206578636044820152701b1d59195908199c9bdb481c995dd85c99607a1b60648201526084016200018c565b6001600160a01b03821660009081526010602052604090205481151560ff909116151503620004765760405162461bcd60e51b815260206004820152603060248201526000805160206200294283398151915260448201526f6564207265776172642073746174757360801b60648201526084016200018c565b600062000482620006d6565b905081156200050657620004968362000701565b6001600160a01b0384166000818152600c6020908152604080832094909455600b90529182208290556011805460018101825592527f31ecc21a745e3968a04e9570e4425bc18fa8019c68028196b546d1669c200c6890910180546001600160a01b031916909117905562000671565b6001600160a01b0383166000908152600c60205260409020546200052c908290620009c7565b6001600160a01b0384166000908152600b6020908152604080832093909355600c90529081208190555b6011548110156200066f57836001600160a01b031660118281548110620005815762000581620009e1565b6000918252602090912001546001600160a01b0316036200065a5760118054620005ae906001906200099b565b81548110620005c157620005c1620009e1565b600091825260209091200154601180546001600160a01b039092169183908110620005f057620005f0620009e1565b9060005260206000200160006101000a8154816001600160a01b0302191690836001600160a01b031602179055506011805480620006325762000632620009f7565b600082815260209020810160001990810180546001600160a01b03191690550190556200066f565b80620006668162000a0d565b91505062000556565b505b6001600160a01b038316600081815260106020908152604091829020805460ff191686151590811790915591519182527f1a2b936d526a67236c009e4ae88154b6373714f26c627ecef5afcd5d62c0536b910160405180910390a2505050565b505050565b6000600d54600003620006ea5750600e5490565b600d54600e54620006fc919062000a29565b905090565b6001600160a01b03811660009081526010602052604081205460ff16156200073f57506001600160a01b03166000908152600c602052604090205490565b6001600160a01b0382166000908152600b6020526040902054620007639062000769565b92915050565b6000600e54821115620007bf5760405162461bcd60e51b815260206004820152601560248201527f416d6f756e7420657863656564732072546f74616c000000000000000000000060448201526064016200018c565b600e54600003620007d257506000919050565b620007dc620006d6565b62000763908362000a29565b634e487b7160e01b600052604160045260246000fd5b600181811c908216806200081357607f821691505b6020821081036200083457634e487b7160e01b600052602260045260246000fd5b50919050565b601f821115620006d157600081815260208120601f850160051c81016020861015620008635750805b601f850160051c820191505b8181101562000884578281556001016200086f565b505050505050565b81516001600160401b03811115620008a857620008a8620007e8565b620008c081620008b98454620007fe565b846200083a565b602080601f831160018114620008f85760008415620008df5750858301515b600019600386901b1c1916600185901b17855562000884565b600085815260208120601f198616915b82811015620009295788860151825594840194600190910190840162000908565b5085821015620009485787850151600019600388901b60f8161c191681555b5050505050600190811b01905550565b634e487b7160e01b600052601260045260246000fd5b60008262000980576200098062000958565b500690565b634e487b7160e01b600052601160045260246000fd5b8181038181111562000763576200076362000985565b8082018082111562000763576200076362000985565b808202811582820484141762000763576200076362000985565b634e487b7160e01b600052603260045260246000fd5b634e487b7160e01b600052603160045260246000fd5b60006001820162000a225762000a2262000985565b5060010190565b60008262000a3b5762000a3b62000958565b500490565b608051611edf62000a63600039600081816103a0015261111e0152611edf6000f3fe6080604052600436106101c65760003560e01c8063715018a6116100f7578063a9059cbb11610095578063bbefdbc811610064578063bbefdbc8146104e2578063dd62ed3e14610502578063df8408fe14610522578063f2fde38b1461054257600080fd5b8063a9059cbb14610476578063b2118a8d14610496578063b32d16dd146104b6578063b8f40dc5146104cc57600080fd5b80638da5cb5b116100d15780638da5cb5b1461040d57806395d89b411461042b5780639ba4dc3314610440578063a457c2d71461045657600080fd5b8063715018a6146103c25780637872bf5f146103d75780637dc63812146103f757600080fd5b8063395093511161016457806359405cdf1161013e57806359405cdf146103205780635b3297f11461033657806370a082311461036e57806370d5ae051461038e57600080fd5b806339509351146102ca5780633c1624d4146102ea5780634433be661461030a57600080fd5b806323b872dd116101a057806323b872dd1461024c5780632ff2e9dc1461026c578063313ce5671461028c57806335c6f9bc146102a857600080fd5b806306fdde03146101d2578063095ea7b3146101fd57806318160ddd1461022d57600080fd5b366101cd57005b600080fd5b3480156101de57600080fd5b506101e7610562565b6040516101f49190611bc4565b60405180910390f35b34801561020957600080fd5b5061021d610218366004611c27565b6105f4565b60405190151581526020016101f4565b34801561023957600080fd5b50600d545b6040519081526020016101f4565b34801561025857600080fd5b5061021d610267366004611c53565b61060e565b34801561027857600080fd5b5061023e6b166e49ae11d913d3de00000081565b34801561029857600080fd5b50604051601281526020016101f4565b3480156102b457600080fd5b506102c86102c3366004611ca2565b610632565b005b3480156102d657600080fd5b5061021d6102e5366004611c27565b610648565b3480156102f657600080fd5b506102c8610305366004611cdb565b61066a565b34801561031657600080fd5b5061023e60075481565b34801561032c57600080fd5b5061023e60085481565b34801561034257600080fd5b50600a54610356906001600160a01b031681565b6040516001600160a01b0390911681526020016101f4565b34801561037a57600080fd5b5061023e610389366004611cdb565b610723565b34801561039a57600080fd5b506103567f000000000000000000000000000000000000000000000000000000000000000081565b3480156103ce57600080fd5b506102c8610782565b3480156103e357600080fd5b506102c86103f2366004611cdb565b610796565b34801561040357600080fd5b5061023e61271081565b34801561041957600080fd5b506005546001600160a01b0316610356565b34801561043757600080fd5b506101e76107ff565b34801561044c57600080fd5b5061023e6103e881565b34801561046257600080fd5b5061021d610471366004611c27565b61080e565b34801561048257600080fd5b5061021d610491366004611c27565b610889565b3480156104a257600080fd5b506102c86104b1366004611c53565b610897565b3480156104c257600080fd5b5061023e60095481565b3480156104d857600080fd5b5061023e60065481565b3480156104ee57600080fd5b506102c86104fd366004611cff565b610a8f565b34801561050e57600080fd5b5061023e61051d366004611d31565b610bc3565b34801561052e57600080fd5b506102c861053d366004611ca2565b610bee565b34801561054e57600080fd5b506102c861055d366004611cdb565b610c00565b60606003805461057190611d5f565b80601f016020809104026020016040519081016040528092919081815260200182805461059d90611d5f565b80156105ea5780601f106105bf576101008083540402835291602001916105ea565b820191906000526020600020905b8154815290600101906020018083116105cd57829003601f168201915b5050505050905090565b600033610602818585610c79565b60019150505b92915050565b60003361061c858285610d9d565b610627858585610e17565b506001949350505050565b61063a6113b1565b610644828261140b565b5050565b60003361060281858561065b8383610bc3565b6106659190611daf565b610c79565b6106726113b1565b6001600160a01b0381166106d95760405162461bcd60e51b8152602060048201526024808201527f534f4f4e3a204d616e6167657220616464726573732063616e6e6f74206265206044820152637a65726f60e01b60648201526084015b60405180910390fd5b600a80546001600160a01b0319166001600160a01b0383169081179091556040517fc783f916f4a84aafa6573e6ffd2cd7d99dbf370e160fbaa2d6c585ae7247737e90600090a250565b6001600160a01b03811660009081526010602052604081205460ff161561076057506001600160a01b03166000908152600c602052604090205490565b6001600160a01b0382166000908152600b602052604090205461060890611743565b61078a6113b1565b61079460006117b3565b565b61079e6113b1565b47806107ec5760405162461bcd60e51b815260206004820152601760248201527f534f4f4e3a204e6f205242544320746f2072657363756500000000000000000060448201526064016106d0565b6106446001600160a01b03831682611805565b60606004805461057190611d5f565b6000338161081c8286610bc3565b90508381101561087c5760405162461bcd60e51b815260206004820152602560248201527f45524332303a2064656372656173656420616c6c6f77616e63652062656c6f77604482015264207a65726f60d81b60648201526084016106d0565b6106278286868403610c79565b600033610602818585610e17565b61089f6113b1565b306001600160a01b038416036108f75760405162461bcd60e51b815260206004820152601e60248201527f534f4f4e3a2043616e6e6f74207265736375652073656c6620746f6b656e000060448201526064016106d0565b6040516370a0823160e01b815230600482015283906000906001600160a01b038316906370a0823190602401602060405180830381865afa158015610940573d6000803e3d6000fd5b505050506040513d601f19601f820116820180604052508101906109649190611dc2565b9050808311156109c95760405162461bcd60e51b815260206004820152602a60248201527f534f4f4e3a20496e73756666696369656e7420746f6b656e2062616c616e636560448201526920746f2072657363756560b01b60648201526084016106d0565b60405163a9059cbb60e01b81526001600160a01b0385811660048301526024820185905283169063a9059cbb906044016020604051808303816000875af1158015610a18573d6000803e3d6000fd5b505050506040513d601f19601f82011682018060405250810190610a3c9190611ddb565b610a885760405162461bcd60e51b815260206004820152601b60248201527f534f4f4e3a20546f6b656e207472616e73666572206661696c6564000000000060448201526064016106d0565b5050505050565b610a976113b1565b6103e8841115610ae95760405162461bcd60e51b815260206004820152601e60248201527f534f4f4e3a2054617820726174652065786365656473206d6178696d756d000060448201526064016106d0565b8381610af58486611daf565b610aff9190611daf565b14610b615760405162461bcd60e51b815260206004820152602c60248201527f534f4f4e3a2054617820636f6d706f6e656e7473206d69736d6174636820746f60448201526b74616c20746178207261746560a01b60648201526084016106d0565b60068490556007839055600882905560098190556040805185815260208101859052908101839052606081018290527f91fdaf4ccd4012a6abff118ec6ccf9829c32dd4446d110c62f7535073dd189619060800160405180910390a150505050565b6001600160a01b03918216600090815260016020908152604080832093909416825291909152205490565b610bf66113b1565b610644828261191e565b610c086113b1565b6001600160a01b038116610c6d5760405162461bcd60e51b815260206004820152602660248201527f4f776e61626c653a206e6577206f776e657220697320746865207a65726f206160448201526564647265737360d01b60648201526084016106d0565b610c76816117b3565b50565b6001600160a01b038316610cdb5760405162461bcd60e51b8152602060048201526024808201527f45524332303a20617070726f76652066726f6d20746865207a65726f206164646044820152637265737360e01b60648201526084016106d0565b6001600160a01b038216610d3c5760405162461bcd60e51b815260206004820152602260248201527f45524332303a20617070726f766520746f20746865207a65726f206164647265604482015261737360f01b60648201526084016106d0565b6001600160a01b0383811660008181526001602090815260408083209487168084529482529182902085905590518481527f8c5be1e5ebec7d5bd14f71427d1e84f3dd0314c0f7b2291e5b200ac8c7c3b925910160405180910390a3505050565b6000610da98484610bc3565b90506000198114610e115781811015610e045760405162461bcd60e51b815260206004820152601d60248201527f45524332303a20696e73756666696369656e7420616c6c6f77616e636500000060448201526064016106d0565b610e118484848403610c79565b50505050565b6001600160a01b038316610e7b5760405162461bcd60e51b815260206004820152602560248201527f45524332303a207472616e736665722066726f6d20746865207a65726f206164604482015264647265737360d81b60648201526084016106d0565b6001600160a01b038216610edd5760405162461bcd60e51b815260206004820152602360248201527f45524332303a207472616e7366657220746f20746865207a65726f206164647260448201526265737360e81b60648201526084016106d0565b60008111610f3f5760405162461bcd60e51b815260206004820152602960248201527f5472616e7366657220616d6f756e74206d7573742062652067726561746572206044820152687468616e207a65726f60b81b60648201526084016106d0565b6001600160a01b0383166000908152600f602052604090205460ff1680610f7e57506001600160a01b0382166000908152600f602052604090205460ff165b80610f895750600654155b15610f9e57610f99838383611a03565b505050565b600061271060065483610fb19190611df8565b610fbb9190611e0f565b90506000610fc98284611e31565b9050600060065460075484610fde9190611df8565b610fe89190611e0f565b9050600060065460085485610ffd9190611df8565b6110079190611e0f565b905060006006546009548661101c9190611df8565b6110269190611e0f565b6001600160a01b0389166000908152600c6020526040812080549293508892909190611053908490611e31565b90915550506001600160a01b03881660009081526010602052604090205460ff166110b857611080611b5d565b61108a9087611df8565b6001600160a01b0389166000908152600b6020526040812080549091906110b2908490611e31565b90915550505b6110c183611b85565b81156111785781600d60008282546110d99190611e31565b90915550506040518281526001600160a01b038916907ffd38818f5291bf0bb3a2a48aadc06ba8757865d1dabd804585338aab3009dcb69060200160405180910390a27f00000000000000000000000000000000000000000000000000000000000000006001600160a01b0316886001600160a01b0316600080516020611e8a8339815191528460405161116f91815260200190565b60405180910390a35b80156112df57600a546001600160a01b03166111d65760405162461bcd60e51b815260206004820152601f60248201527f534f4f4e3a204c6971756964697479204d616e61676572206e6f74207365740060448201526064016106d0565b600a546001600160a01b03166000908152600c602052604081208054839290611200908490611daf565b9091555050600a546001600160a01b031660009081526010602052604090205460ff166112695761122f611b5d565b6112399082611df8565b600a546001600160a01b03166000908152600b602052604081208054909190611263908490611daf565b90915550505b600a546040518281526001600160a01b03909116907f3fadb48e6beffbf00511d32274b9fa1b3f7acbb0de862594d7c1e143083b04509060200160405180910390a2600a546040518281526001600160a01b03918216918a1690600080516020611e8a8339815191529060200160405180910390a35b6001600160a01b0387166000908152600c602052604081208054869290611307908490611daf565b90915550506001600160a01b03871660009081526010602052604090205460ff1661136c57611334611b5d565b61133e9085611df8565b6001600160a01b0388166000908152600b602052604081208054909190611366908490611daf565b90915550505b866001600160a01b0316886001600160a01b0316600080516020611e8a8339815191528660405161139f91815260200190565b60405180910390a35050505050505050565b6005546001600160a01b031633146107945760405162461bcd60e51b815260206004820181905260248201527f4f776e61626c653a2063616c6c6572206973206e6f7420746865206f776e657260448201526064016106d0565b6001600160a01b03821661147b5760405162461bcd60e51b815260206004820152603160248201527f534f4f4e3a205a65726f20616464726573732063616e6e6f74206265206578636044820152701b1d59195908199c9bdb481c995dd85c99607a1b60648201526084016106d0565b6001600160a01b03821660009081526010602052604090205481151560ff9091161515036115045760405162461bcd60e51b815260206004820152603060248201527f534f4f4e3a204163636f756e7420616c726561647920696e207370656369666960448201526f6564207265776172642073746174757360801b60648201526084016106d0565b600061150e611b5d565b9050811561158e5761151f83610723565b6001600160a01b0384166000818152600c6020908152604080832094909455600b90529182208290556011805460018101825592527f31ecc21a745e3968a04e9570e4425bc18fa8019c68028196b546d1669c200c6890910180546001600160a01b03191690911790556116e3565b6001600160a01b0383166000908152600c60205260409020546115b2908290611df8565b6001600160a01b0384166000908152600b6020908152604080832093909355600c90529081208190555b6011548110156116e157836001600160a01b03166011828154811061160357611603611e44565b6000918252602090912001546001600160a01b0316036116cf576011805461162d90600190611e31565b8154811061163d5761163d611e44565b600091825260209091200154601180546001600160a01b03909216918390811061166957611669611e44565b9060005260206000200160006101000a8154816001600160a01b0302191690836001600160a01b0316021790555060118054806116a8576116a8611e5a565b600082815260209020810160001990810180546001600160a01b03191690550190556116e1565b806116d981611e70565b9150506115dc565b505b6001600160a01b038316600081815260106020908152604091829020805460ff191686151590811790915591519182527f1a2b936d526a67236c009e4ae88154b6373714f26c627ecef5afcd5d62c0536b910160405180910390a2505050565b6000600e5482111561178f5760405162461bcd60e51b8152602060048201526015602482015274105b5bdd5b9d08195e18d959591cc81c951bdd185b605a1b60448201526064016106d0565b600e546000036117a157506000919050565b6117a9611b5d565b6106089083611e0f565b600580546001600160a01b038381166001600160a01b0319831681179093556040519116919082907f8be0079c531659141344cd1fd0a4f28419497f9722a3daafe3b4186f6b6457e090600090a35050565b804710156118555760405162461bcd60e51b815260206004820152601d60248201527f416464726573733a20696e73756666696369656e742062616c616e636500000060448201526064016106d0565b6000826001600160a01b03168260405160006040518083038185875af1925050503d80600081146118a2576040519150601f19603f3d011682016040523d82523d6000602084013e6118a7565b606091505b5050905080610f995760405162461bcd60e51b815260206004820152603a60248201527f416464726573733a20756e61626c6520746f2073656e642076616c75652c207260448201527f6563697069656e74206d6179206861766520726576657274656400000000000060648201526084016106d0565b6001600160a01b0382166000908152600f602052604090205481151560ff9091161515036119a45760405162461bcd60e51b815260206004820152602d60248201527f534f4f4e3a204163636f756e7420616c726561647920696e207370656369666960448201526c6564206665652073746174757360981b60648201526084016106d0565b6001600160a01b0382166000818152600f6020908152604091829020805460ff191685151590811790915591519182527f2d43abd87b27cee7b0aa8c6f7e0b4a3247b683262a83cbc2318b0df398a49aa9910160405180910390a25050565b6000611a0d611b5d565b6001600160a01b0385166000908152600c6020526040812080549293508492909190611a3a908490611e31565b90915550506001600160a01b03841660009081526010602052604090205460ff16611a9757611a698183611df8565b6001600160a01b0385166000908152600b602052604081208054909190611a91908490611e31565b90915550505b6001600160a01b0383166000908152600c602052604081208054849290611abf908490611daf565b90915550506001600160a01b03831660009081526010602052604090205460ff16611b1c57611aee8183611df8565b6001600160a01b0384166000908152600b602052604081208054909190611b16908490611daf565b90915550505b826001600160a01b0316846001600160a01b0316600080516020611e8a83398151915284604051611b4f91815260200190565b60405180910390a350505050565b6000600d54600003611b705750600e5490565b600d54600e54611b809190611e0f565b905090565b80600003611b905750565b80600d54600e54611ba19190611e0f565b611bab9190611df8565b600e6000828254611bbc9190611e31565b909155505050565b600060208083528351808285015260005b81811015611bf157858101830151858201604001528201611bd5565b506000604082860101526040601f19601f8301168501019250505092915050565b6001600160a01b0381168114610c7657600080fd5b60008060408385031215611c3a57600080fd5b8235611c4581611c12565b946020939093013593505050565b600080600060608486031215611c6857600080fd5b8335611c7381611c12565b92506020840135611c8381611c12565b929592945050506040919091013590565b8015158114610c7657600080fd5b60008060408385031215611cb557600080fd5b8235611cc081611c12565b91506020830135611cd081611c94565b809150509250929050565b600060208284031215611ced57600080fd5b8135611cf881611c12565b9392505050565b60008060008060808587031215611d1557600080fd5b5050823594602084013594506040840135936060013592509050565b60008060408385031215611d4457600080fd5b8235611d4f81611c12565b91506020830135611cd081611c12565b600181811c90821680611d7357607f821691505b602082108103611d9357634e487b7160e01b600052602260045260246000fd5b50919050565b634e487b7160e01b600052601160045260246000fd5b8082018082111561060857610608611d99565b600060208284031215611dd457600080fd5b5051919050565b600060208284031215611ded57600080fd5b8151611cf881611c94565b808202811582820484141761060857610608611d99565b600082611e2c57634e487b7160e01b600052601260045260246000fd5b500490565b8181038181111561060857610608611d99565b634e487b7160e01b600052603260045260246000fd5b634e487b7160e01b600052603160045260246000fd5b600060018201611e8257611e82611d99565b506001019056feddf252ad1be2c89b69c2b068fc378daa952ba7f163c4a11628f55a4df523b3efa26469706673582212209750dfd7c1dbd39d856f91aa4cef9fad5738832a9b8890533e6a8e43e276448464736f6c63430008110033534f4f4e3a204163636f756e7420616c726561647920696e2073706563696669",
  "linkReferences": {},
  "deployedLinkReferences": {}
}